:100000000C9464000C94870A0C94B80A0C94E90AC6
:100010000C94960B0C94430C0C948C000C948C0058
:100020000C948C000C948C000C948C000C94FA0DA5
:100030000C948C000C94060D0C948C000C948C0089
:100040000C94B1190C948C000C94A7170C94D9172C
:100050000C948C000C948C000C948C000C948C00F0
:100060000C948C000C948C0000010203040506071C
:100070000001020304050001020304050102040853
:100080001020408001020408102001020408102002
:10009000040404040404040402020202020203032E
:1000A00003030303000000002300260029000000D2
:1000B0000000250028002B0000000000240027007D
:1000C0002A0013160918201611241FBECFEFD8E0FE
:1000D000DEBFCDBF13E0A0E0B1E0E4ECFEE302C080
:1000E00005900D92AE37B107D9F724E0AEE7B3E043
:1000F00001C01D92A639B207E1F710E0C3E6D0E0D7
:1001000004C02197FE010E94DA1AC136D107C9F74F
:100110000E9437180C94551F0C940000CF93DF9366
:1001200000D0CDB7DEB79A83898300000F900F907F
:10013000DF91CF910895CF93DF93CDB7DEB78AE7F4
:1001400090E02AE730E0F90120812460FC0120835F
:100150008AE790E02AE730E0F90120812D7FFC0159
:1001600020838AE790E02AE730E0F90120812E7FA2
:10017000FC0120830000DF91CF910895CF93DF939E
:1001800000D0CDB7DEB79A83898300000F900F901F
:10019000DF91CF910895CF93DF9300D0CDB7DEB735
:1001A0009A83898300000F900F90DF91CF9108957B
:1001B000CF93DF9300D0CDB7DEB79A838983000059
:1001C0000F900F90DF91CF910895CF93DF9300D0E0
:1001D00000D000D0CDB7DEB79A8389837C836B8350
:1001E0005E834D8365EC71E08EEE93E00E94921881
:1001F0001092C201000026960FB6F894DEBF0FBE23
:10020000CDBFDF91CF910895CF93DF9300D000D081
:1002100000D0CDB7DEB79A8389837C836B835E83FE
:100220004D838091DC039091DD03A091DE03B091BA
:10023000DF032AE030E0AC01BD018EEE93E00E94C6
:100240003519000026960FB6F894DEBF0FBECDBF5D
:10025000DF91CF9108950F931F93CF93DF93CDB785
:10026000DEB7C854D1090FB6F894DEBF0FBECDBFBC
:100270009E012D5B3F4FF90191838083CE018B5B03
:100280009F4FFC0171836083CE01895B9F4FFC010E
:1002900051834083CE01895B9F4FFC018081918116
:1002A000892B09F46AC01A82198289819A819E0178
:1002B000295B3F4FF90120813181820F931FFC019F
:1002C0008081882329F189819A819E01295B3F4F92
:1002D000F90120813181820F931FFC018081882FD9
:1002E00090E0C0970A9710F081E001C080E0882379
:1002F00049F06BED71E08EEE93E00E94921880E081
:1003000090E061C089819A8101969A838983CDCFDB
:10031000CE01895B9F4FFC01808191814AE050E0D2
:1003200060E070E00E94EF1ADC01CB018B839C83BC
:10033000AD83BE838B819C81AD81BE818935924026
:10034000A105B10568F48B819C81AD81BE8180934C
:10035000E4039093E503A093E603B093E70333C06F
:1003600088E592E0A0E0B0E08093E4039093E50399
:10037000A093E603B093E70326C02CE3CE010796D3
:10038000FC01322F11923A95E9F78091E4039091A4
:10039000E503A091E603B091E7039E012B5B3F4F7D
:1003A000F90140815181FE0137968C019D0163E086
:1003B00070E0CF010E946106CE010796BC018EEE6F
:1003C00093E00E949218C85BDF4F0FB6F894DEBF2F
:1003D0000FBECDBFDF91CF911F910F910895CF93A5
:1003E000DF9300D000D000D0CDB7DEB79A838983E9
:1003F0007C836B835E834D836EEF71E08EEE93E0C2
:100400000E9485189091C20181E0933009F080E04C
:10041000882331F062E172E08EEE93E00E94921840
:100420009091C20181E0943009F080E0882331F09E
:1004300067E272E08EEE93E00E9492189091C20102
:1004400081E0923009F080E0882331F06CE372E0C3
:100450008EEE93E00E9492189091C20181E0992360
:1004600009F080E0882331F06EE472E08EEE93E0D4
:100470000E9492189091C20181E0913009F080E0D1
:10048000882331F068E572E08EEE93E00E949218C6
:10049000000026960FB6F894DEBF0FBECDBFDF91E9
:1004A000CF910895CF93DF9300D000D000D0CDB787
:1004B000DEB79A8389837C836B835E834D8381E07F
:1004C0008093C201000026960FB6F894DEBF0FBEDF
:1004D000CDBFDF91CF9108950F931F93CF93DF93FB
:1004E000CDB7DEB7C654D1090FB6F894DEBF0FBE44
:1004F000CDBF9E012F5B3F4FF90191838083CE01D9
:100500008D5B9F4FFC0171836083CE018B5B9F4F9E
:10051000FC0151834083CE018B5B9F4FFC018081A6
:100520009181892B09F44DC01A82198289819A819F
:100530009E012B5B3F4FF90120813181820F931F78
:10054000FC018081882329F189819A819E012B5B9E
:100550003F4FF90120813181820F931FFC0180817F
:10056000882F90E0C0970A9710F081E001C080E0EA
:10057000882349F06BE672E08EEE93E00E949218B9
:1005800080E090E042C089819A8101969A838983B4
:10059000CDCFCE018B5B9F4FFC01808191814AE0E2
:1005A00050E060E070E00E94EF1ADC01CB019C8318
:1005B0008B838B819C81059740F58B818093C20151
:1005C00024C02CE3CE010596FC01322F11923A95FE
:1005D000E9F78091C201882F90E0A0E0B0E09E0191
:1005E0002D5B3F4FF90140815181FE0135968C0111
:1005F0009D0163E070E0CF010E946106CE01059687
:10060000BC018EEE93E00E949218CA5BDF4F0FB6DA
:10061000F894DEBF0FBECDBFDF91CF911F910F9138
:100620000895CF93DF93CDB7DEB72C970FB6F8942C
:10063000DEBF0FBECDBF98878F837A8769875C87BF
:100640004B878B859C85892B09F4A4C01A8219825B
:1006500089819A812B853C85820F931FFC018081C3
:10066000882309F189819A812B853C85820F931F0C
:10067000FC018081882F90E0C0970A9710F081E0FC
:1006800001C080E0882349F063E972E08EEE93E0D8
:100690000E94921880E090E07DC089819A81019645
:1006A0009A838983D5CF8B859C854AE050E060E0B2
:1006B00070E00E94EF1ADC01CB018B839C83AD8339
:1006C000BE832B813C814D815E8188EE93E0DC010D
:1006D0000E94CF1ADC01CB0124E336E040E050E079
:1006E000BC01CD010E94B01ADA01C9018B839C8341
:1006F000AD83BE838B819C81AD81BE81BB23ACF079
:100700008B819C81AD81BE81863C9242A140B10526
:1007100064F48B819C81AD81BE818093E0039093D2
:10072000E103A093E203B093E3032091E00330914F
:10073000E1034091E2035091E30380E89CE0DC0197
:100740000E94CF1ADC01CB0128EE33E040E050E0FC
:10075000BC01CD010E94B01ADA01C9018093E00307
:100760009093E103A093E203B093E3038091E0034D
:100770009091E103A091E203B091E303880F991FE8
:10078000AA1FBB1F8093E0039093E103A093E203B1
:10079000B093E3032C960FB6F894DEBF0FBECDBF27
:1007A000DF91CF9108950F931F93CF93DF93CDB730
:1007B000DEB7C254D1090FB6F894DEBF0FBECDBF6D
:1007C0009EAF8DAFCE01CF96FC0171836083CE01C9
:1007D0008F5B9F4FFC01518340832CE3CE01019638
:1007E000FC01322F11923A95E9F78091E80390913C
:1007F000E903CC01A0E0B0E09E01215C3F4FF9018C
:10080000408151818C019D0163E070E0CE01019631
:100810000E946106CE010196BC018EEE93E00E941B
:1008200092180000CE5BDF4F0FB6F894DEBF0FBE0C
:10083000CDBFDF91CF911F910F9108950F931F931B
:10084000CF93DF93CDB7DEB7C454D1090FB6F89478
:10085000DEBF0FBECDBF9E01215C3F4FF9019183EA
:100860008083CE018F5B9F4FFC0171836083CE013B
:100870008D5B9F4FFC0151834083CE018D5B9F4F69
:10088000FC0180819181892B09F44CC01A82198264
:1008900089819A819E012D5B3F4FF9012081318131
:1008A000820F931FFC018081882329F189819A811D
:1008B0009E012D5B3F4FF90120813181820F931FF3
:1008C000FC018081882F90E0C0970A9710F081E0AA
:1008D00001C080E0882349F06BEB72E08EEE93E07C
:1008E0000E94921880E090E043C089819A8101962D
:1008F0009A838983CDCFCE018D5B9F4FFC01808190
:1009000091814AE050E060E070E00E94EF1ADC0163
:10091000CB018093B6019093B701A093B801B09337
:10092000B90126C02CE3CE010396FC01322F1192AF
:100930003A95E9F78091B6019091B701A091B8017D
:10094000B091B9019E012F5B3F4FF9014081518168
:10095000FE0133968C019D0163E070E0CF010E949F
:100960006106CE010396BC018EEE93E00E949218C0
:10097000CC5BDF4F0FB6F894DEBF0FBECDBFDF916B
:10098000CF911F910F9108950F931F93CF93DF93F2
:10099000CDB7DEB7C454D1090FB6F894DEBF0FBE91
:1009A000CDBF9E01215C3F4FF90191838083CE0131
:1009B0008F5B9F4FFC0171836083CE018D5B9F4FE6
:1009C000FC0151834083CE018D5B9F4FFC018081F0
:1009D0009181892B09F44CC01A82198289819A81EC
:1009E0009E012D5B3F4FF90120813181820F931FC2
:1009F000FC018081882329F189819A819E012D5BE8
:100A00003F4FF90120813181820F931FFC018081CA
:100A1000882F90E0C0970A9710F081E001C080E035
:100A2000882349F061EE72E08EEE93E00E94921806
:100A300080E090E043C089819A8101969A838983FE
:100A4000CDCFCE018D5B9F4FFC01808191814AE02B
:100A500050E060E070E00E94EF1ADC01CB0180936F
:100A6000BA019093BB01A093BC01B093BD0126C015
:100A70002CE3CE010396FC01322F11923A95E9F74F
:100A80008091BA019091BB01A091BC01B091BD01D0
:100A90009E012F5B3F4FF90140815181FE0133964A
:100AA0008C019D0163E070E0CF010E946106CE01E0
:100AB0000396BC018EEE93E00E949218CC5BDF4F50
:100AC0000FB6F894DEBF0FBECDBFDF91CF911F915F
:100AD0000F9108950F931F93CF93DF93CDB7DEB798
:100AE000C454D1090FB6F894DEBF0FBECDBF9E012E
:100AF000215C3F4FF90191838083CE018F5B9F4F33
:100B0000FC0171836083CE018D5B9F4FFC0151839B
:100B10004083CE018D5B9F4FFC0180819181892BA9
:100B200009F44CC01A82198289819A819E012D5B39
:100B30003F4FF90120813181820F931FFC01808199
:100B4000882329F189819A819E012D5B3F4FF9010C
:100B500020813181820F931FFC018081882F90E0DA
:100B6000C0970A9710F081E001C080E0882349F027
:100B700061EE72E08EEE93E00E94921880E090E0C9
:100B800043C089819A8101969A838983CDCFCE0112
:100B90008D5B9F4FFC01808191814AE050E060E0D5
:100BA00070E00E94EF1ADC01CB018093BE019093AC
:100BB000BF01A093C001B093C10126C02CE3CE01B8
:100BC0000396FC01322F11923A95E9F78091BE010C
:100BD0009091BF01A091C001B091C1019E012F5B16
:100BE0003F4FF90140815181FE0133968C019D01F7
:100BF00063E070E0CF010E946106CE010396BC0164
:100C00008EEE93E00E949218CC5BDF4F0FB6F89403
:100C1000DEBF0FBECDBFDF91CF911F910F91089521
:100C2000CF93DF9300D000D000D0CDB7DEB79A834A
:100C300089837C836B835E834D838091C201843082
:100C400021F08091C201833011F481E001C080E085
:100C5000882319F081E08093EA03000026960FB6FE
:100C6000F894DEBF0FBECDBFDF91CF910895CF9333
:100C7000DF93CDB7DEB7C258D1090FB6F894DEBF07
:100C80000FBECDBF9E012F573F4FF9019183808347
:100C9000CE0101960E94C20666E771E0CE01019680
:100CA0000E94E906CE0101960E9483080000CE57FB
:100CB000DF4F0FB6F894DEBF0FBECDBFDF91CF91EF
:100CC00008950F931F93CF93DF93CDB7DEB72A9785
:100CD0000FB6F894DEBF0FBECDBF9A8389837C83A5
:100CE0006B835E834D830F83188729873A878A85B4
:100CF0008F9389858F9388858F938F818F938E8132
:100D00008F938D818F938C818F938B818F9382E1D1
:100D100093E0892F8F9382E193E08F938A818F9361
:100D200089818F930E94681C8DB79EB70C960FB671
:100D3000F894DEBF0FBECDBF00002A960FB6F89420
:100D4000DEBF0FBECDBFDF91CF911F910F910895F0
:100D5000CF93DF9300D0CDB7DEB79A8389830000AD
:100D60000F900F90DF91CF910895CF93DF9300D034
:100D7000CDB7DEB79A83898300000F900F90DF9183
:100D8000CF910895CF93DF9300D0CDB7DEB79A838C
:100D9000898389819A81FC01108289819A81FC0171
:100DA000118289819A812CE30296FC01322F1192E3
:100DB0003A95E9F789819A812CE3CE96FC01322F8E
:100DC00011923A95E9F700000F900F90DF91CF91C3
:100DD0000895CF93DF9300D000D0CDB7DEB79A83CC
:100DE00089837C836B838EEE93E00E94661621E0FC
:100DF000181619060CF020E0222319F189819A8136
:100E000002962CE330E0AC016AE08EEE93E00E94A3
:100E10007D19282F89819A81FC01208389819A81FB
:100E2000FC018081882F90E029813A81820F931FF5
:100E30000296FC01108289819A810296892B09F120
:100E400003C080E090E01FC089819A81AC014E5FB1
:100E50005F4F2B813C8189819A81B9010E944A07A9
:100E600089819A81FC01108289819A81FC018081AB
:100E7000882F90E029813A81820F931F0296FC010E
:100E8000108280E090E00F900F900F900F90DF9114
:100E9000CF910895CF93DF93CDB7DEB72E970FB6DE
:100EA000F894DEBF0FBECDBF9A8789877C876B879A
:100EB0005E874D878D859E856CE173E00E94341CB2
:100EC0009C0189859A8586589F4FFC013183208338
:100ED0006CE173E080E090E00E94341C9C01898505
:100EE0009A8584589F4FFC01318320836CE173E025
:100EF00080E090E00E94341C9C0189859A8582588C
:100F00009F4FFC01318320831A82198289859A853B
:100F100086589F4FFC012081318189819A81820FFF
:100F2000931FFC018081882331F189859A85865839
:100F30009F4FFC012081318189819A81820F931F0B
:100F4000FC018081882F90E0C0970A9710F081E023
:100F500001C080E0882349F06EE173E08EEE93E0FB
:100F60000E94921880E090E079C089819A81019670
:100F70009A838983CBCF89859A8586589F4FFC01B8
:100F8000808191810E94051C039749F069E473E018
:100F90008EEE93E00E94921880E090E05FC01C8289
:100FA0001B828B819C81880F991F880F991F2B852D
:100FB0003C85820F931FFC0180819181A281B381C6
:100FC0008D839E83AF83B8878F819885892B09F4A1
:100FD00043C04D815E8189859A8584589F4FFC016D
:100FE0002081318189859A85B9010E94370821E0E5
:100FF000892B09F020E02223B1F02F8138858985E3
:101000009A8582589F4FFC014081518189859A853C
:1010100084589F4FFC0180819181BC0180E090E069
:10102000F90109951BC08B819C8101969C838B8360
:101030008B819C81880F991F880F991F2B853C8578
:10104000820F931FFC0180819181A281B3818D83E6
:101050009E83AF83B887B8CF81E090E02E960FB61D
:10106000F894DEBF0FBECDBFDF91CF9108950F93EF
:101070001F93CF93DF93CDB7DEB728970FB6F894C1
:10108000DEBF0FBECDBF9C838B837E836D8358876D
:101090004F838D819E81FC018081882F90E00E948A
:1010A0002C1C8C018F819885FC018081882F90E019
:1010B0000E942C1C9801281B390BC9019A83898333
:1010C00089819A81892B31F48D819E81FC018081F7
:1010D000882319F489819A810BC08D819E810196A4
:1010E0009E838D838F819885019698878F83D1CF3A
:1010F00028960FB6F894DEBF0FBECDBFDF91CF911B
:101100001F910F910895CF93DF9300D0CDB7DEB735
:101110009A83898300000F900F90DF91CF910895FB
:10112000CF93DF9300D000D000D0CDB7DEB79A8345
:1011300089834B835C836D837E838B819C81AD81AE
:10114000BE81E981FA8126E0AC01BD01CF010E9498
:101150004217000026960FB6F894DEBF0FBECDBF33
:10116000DF91CF910895CF93DF93CDB7DEB7A097EE
:101170000FB6F894DEBF0FBECDBF8D8F7F8F6E8F01
:1011800048A319821A828D8D8F778B838D8D88234A
:1011900044F08B81823009F430C18B81833009F4B3
:1011A0002CC18B81882F90E084589F4F9E838D8324
:1011B0008D819E81FC0184918F838F818A838B81B5
:1011C000882F90E080579F4F9987888788859985D9
:1011D000FC0184918A878A85898388A1833019F0EC
:1011E00088A18130D9F48981823031F49091AE03A5
:1011F0008A81892B8093AE038981833031F4909169
:10120000B1038A81892B8093B1038981843031F4C1
:101210009091B4038A81892B8093B40388A1823092
:1012200019F088A18130D9F48981823031F490910C
:10123000AF038A81892B8093AF038981833031F496
:101240009091B2038A81892B8093B2038981843083
:1012500031F49091B5038A81892B8093B5038B81FA
:10126000882F90E088599F4F9C878B878B859C8522
:10127000FC0184918D878D858E8789818230C1F5AF
:101280008E85882F90E0880F991F8A579C4F988BE6
:101290008F878F8598892E8D3F8DFC013183208328
:1012A0008981882F90E0880F991F8C559F4F9A8BCA
:1012B000898B89899A89FC0125913491CF013C8BD6
:1012C0002B8B9A8B898B8B899C89FC0180818093E5
:1012D000B0038BE690E0909381038093800388E6CF
:1012E00090E028E630E0F90120812160FC012083B4
:1012F00089818330C1F58E85882F90E0880F991FF2
:101300008E569C4F988B8F878F8598892E8D3F8D19
:10131000FC01318320838981882F90E0880F991FF9
:101320008C559F4F9E8B8D8B8D899E89FC012591BD
:101330003491CF01388F2F8B9E8B8D8B8F89988D19
:10134000FC0180818093B3038CE690E0909381034D
:101350008093800388E690E028E630E0F901208160
:101360002260FC01208389818430C1F58E85882F1D
:1013700090E0880F991F82569C4F988B8F878F859E
:1013800098892E8D3F8DFC01318320838981882FA0
:1013900090E0880F991F8C559F4F9A8F898F898D68
:1013A0009A8DFC0125913491CF013C8F2B8F9A8F20
:1013B000898F8B8D9C8DFC0180818093B6038DE697
:1013C00090E0909381038093800388E690E028E684
:1013D00030E0F90120812460FC01208380918003AA
:1013E000909181032091800330918103F901308134
:1013F0002A81232BFC01208380C08FE590E0FC0133
:1014000080818C83F8948B818230A1F58E8D9F8DA5
:1014100090938303809382038DE390E02DE330E08B
:10142000F90120812E7FFC01208389E690E029E6E6
:1014300030E0F90120812C7FFC01208389E690E0D7
:1014400029E630E0F901308128A1232BFC0120831B
:101450008CE390E02CE330E0F90120812160FC0175
:1014600020838DE390E02DE330E0F90120812160BD
:10147000FC0120838B818330D9F58E8D9F8D9093D5
:101480008503809384038DE390E02DE330E0F90140
:1014900020812D7FFC01208389E690E029E630E061
:1014A000F9012081237FFC01208389E690E029E671
:1014B00030E0F9012081422F28A1222F30E0220FB5
:1014C000331F220F331F242BFC0120838CE390E079
:1014D0002CE330E0F90120812260FC0120838DE3C0
:1014E00090E02DE330E0F90120812260FC012083AF
:1014F0008FE590E02C81FC0120830000A0960FB6C0
:10150000F894DEBF0FBECDBFDF91CF9108951F923B
:101510000F9200905F000F9211242F933F934F93EF
:101520005F936F937F938F939F93AF93BF93EF934B
:10153000FF93CF93DF93CDB7DEB780918203909175
:101540008303FC0109950000DF91CF91FF91EF919A
:10155000BF91AF919F918F917F916F915F914F91CB
:101560003F912F910F9000925F000F901F90189560
:101570001F920F9200905F000F9211242F933F93C0
:101580004F935F936F937F938F939F93AF93BF938B
:10159000EF93FF93CF93DF93CDB7DEB780918403B2
:1015A00090918503FC0109950000DF91CF91FF9197
:1015B000EF91BF91AF919F918F917F916F915F91CB
:1015C0004F913F912F910F9000925F000F901F90CD
:1015D00018951F920F9200905F000F9211242F9385
:1015E0003F934F935F936F937F938F939F93AF93AB
:1015F000BF93EF93FF93CF93DF9300D000D0CDB78D
:10160000DEB783E290E0FC01808189839091B00392
:10161000898189278A839091AE03898189238B836D
:10162000898180959091AF0389238C839C818B81E4
:10163000892B8C839C818A8189238C838BE690E023
:10164000FC0180819C8189238C8389818093B003F4
:101650008C81882309F44FC08C81882F90E08170A1
:101660009927892B31F08091860390918703FC01A3
:1016700009958C81882F90E082709927892B31F011
:101680008091880390918903FC0109958C81882FB2
:1016900090E084709927892B31F080918A03909192
:1016A0008B03FC0109958C81882F90E08870992725
:1016B000892B31F080918C0390918D03FC01099569
:1016C0008C81882F90E080719927892B31F080914F
:1016D0008E0390918F03FC0109958C81882F90E0F7
:1016E00080729927892B49F0809190039091910302
:1016F000FC01099501C00000000000000F900F9050
:101700000F900F90DF91CF91FF91EF91BF91AF912B
:101710009F918F917F916F915F914F913F912F9109
:101720000F9000925F000F901F9018951F920F92DC
:1017300000905F000F9211242F933F934F935F937C
:101740006F937F938F939F93AF93BF93EF93FF9389
:10175000CF93DF9300D000D0CDB7DEB786E290E024
:10176000FC01808189839091B303898189278A83D1
:101770009091B103898189238B8389818095909190
:10178000B20389238C839C818B81892B8C839C81E0
:101790008A8189238C838CE690E0FC0180819C8186
:1017A00089238C8389818093B3038C81882309F4F6
:1017B0004FC08C81882F90E081709927892B31F060
:1017C0008091920390919303FC0109958C81882F5D
:1017D00090E082709927892B31F080919403909149
:1017E0009503FC0109958C81882F90E084709927DE
:1017F000892B31F08091960390919703FC01099514
:101800008C81882F90E088709927892B31F0809106
:10181000980390919903FC0109958C81882F90E0A1
:1018200080719927892B31F080919A0390919B03C5
:10183000FC0109958C81882F90E080729927892B73
:1018400049F080919C0390919D03FC01099501C092
:101850000000000000000F900F900F900F90DF919C
:10186000CF91FF91EF91BF91AF919F918F917F9118
:101870006F915F914F913F912F910F9000925F0078
:101880000F901F9018951F920F9200905F000F927B
:1018900011242F933F934F935F936F937F938F9375
:1018A0009F93AF93BF93EF93FF93CF93DF9300D0BA
:1018B00000D0CDB7DEB789E290E0FC01808189835A
:1018C0009091B603898189278A839091B403898195
:1018D00089238B83898180959091B50389238C839B
:1018E0009C818B81892B8C839C818A8189238C8329
:1018F0008DE690E0FC0180819C8189238C83898125
:101900008093B6038C81882309F465C08C81882F6D
:1019100090E081709927892B31F080919E039091FE
:101920009F03FC0109958C81882F90E08270992794
:10193000892B31F08091A0039091A103FC010995BE
:101940008C81882F90E084709927892B31F08091C9
:10195000A2039091A303FC0109958C81882F90E04C
:1019600088709927892B31F08091A4039091A50369
:10197000FC0109958C81882F90E080719927892B33
:1019800031F08091A6039091A703FC0109958C8109
:10199000882F90E080729927892B31F08091A803DD
:1019A0009091A903FC0109958C81882F90E08074A7
:1019B0009927892B31F08091AA039091AB03FC0108
:1019C00009958C8188234CF48091AC039091AD03F0
:1019D000FC01099501C00000000000000F900F906D
:1019E0000F900F90DF91CF91FF91EF91BF91AF9149
:1019F0009F918F917F916F915F914F913F912F9127
:101A00000F9000925F000F901F9018951F920F92F9
:101A100000905F000F9211242F933F934F935F9399
:101A20006F937F938F939F93AF93BF93EF93FF93A6
:101A3000CF93DF93CDB7DEB72697DEBFCDBF24E8C7
:101A400030E08091AE019091AF01A091B001B091D2
:101A5000B10180959095F901918380839091C201A5
:101A600081E0913009F480E0882309F4A8C0209136
:101A7000E0033091E1034091E2035091E303809150
:101A8000DC039091DD03A091DE03B091DF0361E000
:101A9000281739074A075B0709F460E0662311F04D
:101AA0000E94E9122091E0033091E1034091E203AA
:101AB0005091E3038091DC039091DD03A091DE035C
:101AC000B091DF0361E082179307A407B5070CF01C
:101AD00060E0662351F18091AC019091AD01845892
:101AE0009F4F9A83898389819A81FC0184918B839A
:101AF0004B818BE290E02BE230E0F9012081242B36
:101B0000FC0120838091DC039091DD03A091DE0332
:101B1000B091DF030196A11DB11D8093DC0390936A
:101B2000DD03A093DE03B093DF032091E003309147
:101B3000E1034091E2035091E3038091DC03909133
:101B4000DD03A091DE03B091DF0361E028173907C0
:101B50004A075B070CF060E0662389F18091AC01D5
:101B60009091AD0184589F4F9D838C838C819D8182
:101B7000FC0184918E838E81882F90E0AC0140958A
:101B800050958BE290E02BE230E0F9012081322F7A
:101B9000242F2323FC0120838091DC039091DD031B
:101BA000A091DE03B091DF030197A109B1098093F1
:101BB000DC039093DD03A093DE03B093DF0300000A
:101BC00026960FB6F894DEBF0FBECDBFDF91CF9142
:101BD000FF91EF91BF91AF919F918F917F916F9105
:101BE0005F914F913F912F910F9000925F000F9066
:101BF0001F9018951F920F9200905F000F92112472
:101C00002F933F934F935F936F937F938F939F9304
:101C1000AF93BF93EF93FF93CF93DF93CDB7DEB72F
:101C20002697DEBFCDBF9091C20181E0913009F4CB
:101C300080E0882309F4A8C02091E0033091E103FB
:101C40004091E2035091E3038091DC039091DD0326
:101C5000A091DE03B091DF0361E0281739074A073E
:101C60005B0709F460E0662311F00E94E9122091FD
:101C7000E0033091E1034091E2035091E30380914E
:101C8000DC039091DD03A091DE03B091DF0361E0FE
:101C900082179307A407B5070CF060E0662351F1A3
:101CA0008091AC019091AD0184589F4F9A838983B4
:101CB00089819A81FC0184918B834B818BE290E036
:101CC0002BE230E0F9012081242BFC01208380915C
:101CD000DC039091DD03A091DE03B091DF03019658
:101CE000A11DB11D8093DC039093DD03A093DE035F
:101CF000B093DF032091E0033091E1034091E203D0
:101D00005091E3038091DC039091DD03A091DE0309
:101D1000B091DF0361E0281739074A075B070CF031
:101D200060E0662389F18091AC019091AD01845807
:101D30009F4F9D838C838C819D81FC0184918E8338
:101D40008E81882F90E0AC01409550958BE290E019
:101D50002BE230E0F9012081322F242F2323FC01D4
:101D600020838091DC039091DD03A091DE03B0918C
:101D7000DF030197A109B1098093DC039093DD0390
:101D8000A093DE03B093DF03000026960FB6F8940D
:101D9000DEBF0FBECDBFDF91CF91FF91EF91BF911D
:101DA000AF919F918F917F916F915F914F913F91F3
:101DB0002F910F9000925F000F901F901895CF9376
:101DC000DF93CDB7DEB70E94FB19DC01CB01809316
:101DD000D8039093D903A093DA03B093DB03209147
:101DE000D8033091D9034091DA035091DB038091FD
:101DF000D4039091D503A091D603B091D7032817AF
:101E000039074A075B0709F46CC08091D8039091A9
:101E1000D903A091DA03B091DB038093D4039093AC
:101E2000D503A093D603B093D7038091BC039091C0
:101E3000BD03A091BE03B091BF0321E0892B8A2B83
:101E40008B2B09F020E0222361F00E94FB19DC01BA
:101E5000CB018093C0039093C103A093C203B093BE
:101E6000C3038091BC039091BD03A091BE03B091C8
:101E7000BF030196A11DB11D8093BC039093BD03C8
:101E8000A093BE03B093BF039091EB0381E0892739
:101E9000882371F08091BC039091BD03A091BE0393
:101EA000B091BF030A97A105B10514F081E001C00C
:101EB00080E0882319F081E08093EB038091CC03CC
:101EC0009091CD03A091CE03B091CF030196A11DB7
:101ED000B11D8093CC039093CD03A093CE03B09318
:101EE000CF030000DF91CF910895CF93DF9300D00F
:101EF000CDB7DEB761E083E00E94421A8091AC0169
:101F00009091AD0161E00E94421A8091AA019091E6
:101F1000AB0160E00E94421A60E086E00E94421A33
:101F200041E06FED7EE086E00E94B308CE010196AD
:101F30000E948E00CE0102960E942D160E949B00E8
:101F40000E943A1640E052EC61E070E08EEE93E0C1
:101F50000E94900842E350E060E070E08EEE93E073
:101F60000E9477191092C201CE0102960E94591662
:101F7000CE0101960E94BE0000000F900F90DF91ED
:101F8000CF910895CF92DF92EF92FF920F931F931C
:101F9000CF93DF93CDB7DEB72C970FB6F894DEBFA3
:101FA0000FBECDBF8CEE93E00E94370689E290E031
:101FB000FC018081882F90E08072992721E0892B95
:101FC00009F420E02093BB039091C20181E092309C
:101FD00009F080E0882329F18091E4039091E503E2
:101FE000A091E603B091E7032091B7033091B803C5
:101FF0004091B9035091BA0361E082179307A40797
:10200000B50709F460E0662361F08091E4039091E4
:10201000E503A091E603B091E703BC01CD010E9466
:102020005F159091C20181E0933009F080E0882330
:1020300009F475C09091C30181E0913009F080E00E
:10204000882341F1C090E403D090E503E090E603DB
:10205000F090E7032091BA013091BB014091BC019F
:102060005091BD018091B6019091B701A091B80146
:10207000B091B901820F931FA41FB51FBC01CD0100
:102080000E940415DC01CB01A7019601BC01CD0122
:102090000E9409139091C30181E0992309F080E027
:1020A0008823E1F0C090E403D090E503E090E603DC
:1020B000F090E7038091B6019091B701A091B8012B
:1020C000B091B901BC01CD010E940415DC01CB0126
:1020D000A7019601BC01CD010E9409132091DC03E8
:1020E0003091DD034091DE035091DF038091E003E6
:1020F0009091E103A091E203B091E30361E028171E
:1021000039074A075B0709F060E0662341F09091C8
:10211000C30181E0913009F480E08093C301909184
:10212000C20181E0943009F080E0882309F4B3C152
:102130000E94FB197B018C018091B4019091B50143
:102140009C01990F440B550B8091C4039091C503DA
:10215000A091C603B091C703820F931FA41FB51FA0
:1021600021E08E159F05A007B10708F020E022238B
:1021700009F491C19091EA0381E08927882309F449
:102180001EC18091B6019091B701A091B801B091A4
:10219000B901BC01CD010E940415DC01CB019C01F9
:1021A000AD018091DC039091DD03A091DE03B0913D
:1021B000DF0361E082179307A407B5070CF060E026
:1021C000662351F18091B6019091B701A091B801B9
:1021D000B091B901BC01CD010E940415DC01CB0115
:1021E00028E532E040E050E0BC01CD010E94091337
:1021F00081E08093C3011092D0031092D10310921A
:10220000D2031092D3031092CC031092CD031092FC
:10221000CE031092CF0333C18091BE019091BF01D4
:10222000A091C001B091C101BC01CD010E94041573
:10223000DC01CB0124E630E040E050E0BC01CD0100
:102240000E948E1ADA01C90189839A83AB83BC8309
:102250002091CC033091CD034091CE035091CF0318
:102260008091D0039091D103A091D203B091D30378
:1022700079018A01E81AF90A0A0B1B0BD801C70178
:102280008D839E83AF83B8879091C30181E09130A5
:1022900009F080E0882301F12091E8033091E903FF
:1022A000C901880F991F820F931F7C0100E010E085
:1022B0002D813E814F81588589819A81AB81BC8176
:1022C000BC01CD010E947E1ADC01CB01A80197015F
:1022D000BC01CD010E9439139091C30181E0992383
:1022E00009F080E0882339F12091E8033091E90377
:1022F000C901880F991F820F931F7C0100E010E035
:102300002D813E814F81588589819A81AB81BC8125
:10231000BC01CD010E947E1ADC01CB01B095A095D5
:10232000909581959F4FAF4FBF4FA8019701BC017A
:10233000CD010E9439138091B6019091B701A0910F
:10234000B801B091B901BC01CD010E9404156B0127
:102350007C018091BA019091BB01A091BC01B09128
:10236000BD01BC01CD010E940415DC01CB018C0D27
:102370009D1DAE1DBF1D2091DC033091DD034091FA
:10238000DE035091DF0361E0281739074A075B0736
:1023900008F460E0662311F01092C3018091CC0331
:1023A0009091CD03A091CE03B091CF038093D00341
:1023B0009093D103A093D203B093D30360C0209134
:1023C000BA013091BB014091BC015091BD01809197
:1023D000B6019091B701A091B801B091B901820FF7
:1023E000931FA41FB51FBC01CD010E940415DC0181
:1023F000CB0128E532E040E050E0BC01CD010E9475
:1024000009132091DC033091DD034091DE035091EC
:10241000DF038091E0039091E103A091E203B0918A
:10242000E30361E0281739074A075B0709F460E016
:10243000662319F12091BA013091BB014091BC0192
:102440005091BD018091B6019091B701A091B80162
:10245000B091B901820F931FA41FB51FBC01CD011C
:102460000E940415DC01CB0128E532E040E050E099
:10247000BC01CD010E940913C4CF1092EA030E944F
:10248000FB19DC01CB018093C4039093C503A09397
:10249000C603B093C7039091C20181E0992309F06C
:1024A00080E0882341F068E572E080E090E00E94DF
:1024B0005F150E9475138091EB038823E9F40E9455
:1024C000FB197B018C018091B2019091B3019C01B9
:1024D000990F440B550B8091C8039091C903A091AB
:1024E000CA03B091CB03820F931FA41FB51F8E1593
:1024F0009F05A007B10710F481E001C080E08823A8
:1025000009F457C00E94FB199B01AC018091C803DC
:102510009091C903A091CA03B091CB0379018A01BC
:10252000E81AF90A0A0B1B0BD801C70189879A8799
:10253000AB87BC87F8942091BC033091BD034091D8
:10254000BE035091BF0380E69AEEDC010E94CF1AD1
:10255000DC01CB0129853A854B855C85BC01CD0129
:102560000E948E1ADA01C90124E630E040E050E012
:10257000BC01CD010E948E1ADA01C9019093E903D2
:102580008093E8031092BC031092BD031092BE0327
:102590001092BF031092EB0378940E94FB19DC01A8
:1025A000CB018093C8039093C903A093CA03B0934F
:1025B000CB0300002C960FB6F894DEBF0FBECDBF44
:1025C000DF91CF911F910F91FF90EF90DF90CF900F
:1025D0000895CF93DF93CDB7DEB789E290E0FC0199
:1025E0008081882F90E088709927892B19F489E0E1
:1025F00090E002C088E090E02BE230E04BE250E057
:10260000FA0140818427F90180830000DF91CF9196
:102610000895CF93DF93CDB7DEB728970FB6F89420
:10262000DEBF0FBECDBF69837A838B839C832D83EE
:102630003E834F8358878D819E81AF81B885BC01D1
:10264000CD010E945F1589819A81AB81BC81809305
:10265000E0039093E103A093E203B093E30300004F
:1026600028960FB6F894DEBF0FBECDBFDF91CF9195
:102670000895CF93DF93CDB7DEB728970FB6F894C0
:10268000DEBF0FBECDBF69837A838B839C832D838E
:102690003E834F8358878D819E81AF81B885BC0171
:1026A000CD010E945F152091E0033091E10340913C
:1026B000E2035091E30389819A81AB81BC81820F4F
:1026C000931FA41FB51F8093E0039093E103A09391
:1026D000E203B093E303000028960FB6F894DEBF40
:1026E0000FBECDBFDF91CF910895CF93DF93CDB7CC
:1026F000DEB71092E0031092E1031092E203109211
:10270000E3039091BB0381E08927882391F189E25B
:1027100090E0FC018081882F90E08072992721E071
:10272000892B09F420E02093BB032091DC03309136
:10273000DD034091DE035091DF038091E00390912F
:10274000E103A091E203B091E30361E028173907A8
:102750004A075B0709F060E0662399F228E532E05A
:1027600040E050E06CE97FEF8FEF9FEF0E9439135C
:10277000C8CF28E532E040E050E068E17CEF8FEF21
:102780009FEF0E9439132091DC033091DD034091CB
:10279000DE035091DF038091E0039091E103A0916B
:1027A000E203B091E30361E0281739074A075B07AA
:1027B00009F460E0662309F0E6CF8091BB0388232B
:1027C00091F189E290E0FC018081882F90E0807295
:1027D000992721E0892B09F420E02093BB03209165
:1027E000DC033091DD034091DE035091DF038091E3
:1027F000E0039091E103A091E203B091E30361E073
:10280000281739074A075B0709F060E06623A9F239
:1028100028E532E040E050E064E670E080E090E0DF
:102820000E943913CACF28E532E040E050E068E862
:1028300073E180E090E00E9439132091DC03309135
:10284000DD034091DE035091DF038091E00390911E
:10285000E103A091E203B091E30361E02817390797
:102860004A075B0709F460E0662309F0E6CF909120
:10287000BB0381E08927882391F189E290E0FC0184
:102880008081882F90E08072992721E0892B09F4BC
:1028900020E02093BB032091DC033091DD034091C5
:1028A000DE035091DF038091E0039091E103A0915A
:1028B000E203B091E30361E0281739074A075B0799
:1028C00009F060E0662399F226E930E040E050E04C
:1028D0006CE97FEF8FEF9FEF0E943913C8CF26E995
:1028E00030E040E050E068E17CEF8FEF9FEF0E9426
:1028F00039132091DC033091DD034091DE035091C8
:10290000DF038091E0039091E103A091E203B09195
:10291000E30361E0281739074A075B0709F460E021
:10292000662309F0E6CF8091BB03882391F189E209
:1029300090E0FC018081882F90E08072992721E04F
:10294000892B09F420E02093BB032091DC03309114
:10295000DD034091DE035091DF038091E00390910D
:10296000E103A091E203B091E30361E02817390786
:102970004A075B0709F060E06623A9F226E930E028
:1029800040E050E064E670E080E090E00E9439139F
:10299000CACF26E930E040E050E068EE73E080E026
:1029A00090E00E9439132091DC033091DD034091C7
:1029B000DE035091DF038091E0039091E103A09149
:1029C000E203B091E30361E0281739074A075B0788
:1029D00009F460E0662309F0E6CF1092DC03109260
:1029E000DD031092DE031092DF031092E0031092D9
:1029F000E1031092E2031092E30381E08093C201AD
:102A00000000DF91CF910895CF93DF93CDB7DEB76C
:102A100028970FB6F894DEBF0FBECDBF6D837E83BF
:102A20008F8398872D813E814F81588588EE93E072
:102A3000DC010E94CF1ADC01CB0124E336E040E048
:102A400050E0BC01CD010E948E1ADA01C9018983D0
:102A50009A83AB83BC8329813A814B815C8180E876
:102A60009CE0DC010E94CF1ADC01CB0128EE33E0B0
:102A700040E050E0BC01CD010E948E1ADA01C9018C
:102A800089839A83AB83BC8389819A81AB81BC8122
:102A9000880F991FAA1FBB1F89839A83AB83BC83AE
:102AA00089819A81AB81BC81BC01CD0128960FB68A
:102AB000F894DEBF0FBECDBFDF91CF910895CF93C5
:102AC000DF93CDB7DEB728970FB6F894DEBF0FBE01
:102AD000CDBF6D837E838F8398872D813E814F810B
:102AE000588580E89CE0DC010E94CF1ADC01CB0114
:102AF0002CE330E040E050E0BC01CD010E94B01A70
:102B0000DA01C90189839A83AB83BC8389819A8165
:102B1000AB81BC81880F991FAA1FBB1F89839A8331
:102B2000AB83BC8380E094E2A4EFB0E029813A81DA
:102B30004B815C81BC01CD010E948E1ADA01C90172
:102B40000197A109B1098093AE019093AF01A093C1
:102B5000B001B093B101000028960FB6F894DEBF23
:102B60000FBECDBFDF91CF910895CF93DF9300D0FB
:102B700000D0CDB7DEB79A8389837C836B8389814C
:102B80009A810197C1F58B819C810196A1F5809175
:102B9000B4019091B501092E000CAA0BBB0B8093D8
:102BA000C4039093C503A093C603B093C703809159
:102BB000B2019091B301092E000CAA0BBB0B8093BC
:102BC000C8039093C903A093CA03B093CB030E9498
:102BD000FB19DC01CB018093D8039093D903A09318
:102BE000DA03B093DB038CEE93E00E94A8068DEE2F
:102BF00093E00E94CB0089819A81892B61F48B81BB
:102C00009C81019641F48DEE93E00E94D8008CEEF9
:102C100093E00E94B50600000F900F900F900F9068
:102C2000DF91CF910895CF93DF93CDB7DEB76FEFEC
:102C30007FEF81E090E00E94B515DF91CF9108957C
:102C4000CF93DF93CDB7DEB76FEF7FEF80E090E0FB
:102C50000E94B515DF91CF910895CF93DF9300D0F7
:102C6000CDB7DEB79A83898300000F900F90DF9174
:102C7000CF910895CF93DF93CDB7DEB780E890E092
:102C8000FC01108288E890E0FC011182108281E84A
:102C900090E021E0FC0120838FE690E02FE630E019
:102CA000F90120812160FC0120830000DF91CF9198
:102CB0000895CF93DF9300D0CDB7DEB79A83898391
:102CC00000000F900F90DF91CF910895FC01918D3E
:102CD000228D892F90E0805C9F4F821B91098F731A
:102CE00099270895FC01918D828D981731F0828D7E
:102CF000E80FF11D858D90E008958FEF9FEF089507
:102D0000FC01918D828D981761F0828DDF01A80FF3
:102D1000B11D5D968C91928D9F5F9F73928F90E015
:102D200008958FEF9FEF0895FC01538D448D252F5B
:102D300030E0842F90E0821B930B541710F0CF9655
:102D40000895019708958FEF97E1892B49F080E06E
:102D500090E0892B29F00E94FF1781110C9400004C
:102D60000895FC01848DDF01A80FB11DA35ABF4F48
:102D70002C91848D90E001968F739927848FA6897A
:102D8000B7892C93A089B1898C91837080648C93CE
:102D9000938D848D981306C00288F389E02D80817D
:102DA0008F7D80830895EF92FF920F931F93CF93AF
:102DB000DF93EC0181E0888F9B8D8C8D981305C08B
:102DC000E889F989808185FD26C0F62E0B8D10E0FB
:102DD0000F5F1F4F0F731127E02E8C8DE8120CC070
:102DE0000FB607FCFACFE889F989808185FFF5CF16
:102DF000CE010E94B116F1CF8B8DFE01E80FF11DBF
:102E0000E35AFF4FF0829FB7F8940B8FEA89FB8952
:102E1000808180620AC09FB7F894EE89FF89608341
:102E2000E889F98980818370806480839FBF81E015
:102E300090E0DF91CF911F910F91FF90EF90089557
:102E4000CF93DF93EC01888D8823C9F0EA89FB8951
:102E5000808185FD05C0A889B9898C9186FD0FC048
:102E60000FB607FCF5CF808185FFF2CFA889B9891D
:102E70008C9185FFEDCFCE010E94B116E7CFDF9197
:102E8000CF910895CF92DF92EF92FF921F93CF934D
:102E9000DF93EC016A017B01122FE889F98982E056
:102EA00080834115514E61057105B1F060E079E014
:102EB0008DE390E0A70196010E948E1ADA01C90104
:102EC0000197A109B109B695A795979587959C019A
:102ED000211580E13807A8F0E889F989108260E8B7
:102EE00074E88EE190E0A70196010E948E1ADA0143
:102EF000C9010197A109B109B695A795979587953D
:102F00009C01EC85FD853083EE85FF852083188E3E
:102F1000EC89FD891083EA89FB8980818061808347
:102F2000EA89FB89808188608083EA89FB898081C6
:102F300080688083EA89FB8980818F7D8083DF912F
:102F4000CF911F91FF90EF90DF90CF9008951F9247
:102F50000F920FB60F9211242F938F939F93EF939D
:102F6000FF93E091FE03F091FF038081E091040460
:102F7000F091050482FD12C09081809107048F5F5B
:102F80008F7320910804821751F0E0910704F0E05C
:102F9000E251FC4F958F8093070401C08081FF911F
:102FA000EF919F918F912F910F900FBE0F901F90D7
:102FB00018951F920F920FB60F9211242F933F93E3
:102FC0004F935F936F937F938F939F93AF93BF9331
:102FD000EF93FF938EEE93E00E94B116FF91EF9175
:102FE000BF91AF919F918F917F916F915F914F9121
:102FF0003F912F910F900FBE0F901F9018958EEE5E
:1030000093E00E94661621E0892B09F420E0822FCC
:103010000895EEEEF3E01382128288EE93E0A0E0D2
:10302000B0E084839583A683B78381E693E09183A0
:10303000808385EC90E09587848784EC90E0978787
:10304000868780EC90E0918B808B81EC90E0938B75
:10305000828B82EC90E0958B848B86EC90E0978B52
:10306000868B118E128E138E148E089508950E94F1
:10307000071A0E9436180E94750FC3EAD6E10E9413
:10308000C20F2097E1F30E94A316F9CFCF92DF92EF
:10309000EF92FF920F931F93CF93DF936C017A010E
:1030A0008B01C0E0D0E0CE15DF0581F0D8016D9135
:1030B0008D01D601ED91FC910190F081E02DC601CA
:1030C0000995892B11F02196EECF7E01C701DF9182
:1030D000CF911F910F91FF90EF90DF90CF900895C7
:1030E0006115710579F0FB0101900020E9F7319736
:1030F000AF01461B570BDC01ED91FC910280F3817F
:10310000E02D099480E090E008950C947018DC01A3
:10311000ED91FC910190F081E02D09946FE673E050
:103120000C9470180F931F93CF93DF93EC010E94C0
:1031300070188C01CE010E948E18800F911FDF91B4
:10314000CF911F910F9108958F929F92AF92BF924E
:10315000EF92FF920F931F93CF93DF93CDB7DEB71C
:10316000A1970FB6F894DEBF0FBECDBF7C01FA0168
:10317000CB0119A2223008F42AE08E010F5D1F4F07
:10318000822E912CA12CB12CBF01A50194010E948B
:103190008E1AF901CA01015011096A3010F4605DFC
:1031A00001C0695CD8016C93232B242B252B61F77C
:1031B000B801C7010E947018A1960FB6F894DEBF3F
:1031C0000FBECDBFDF91CF911F910F91FF90EF9078
:1031D000BF90AF909F908F900895CF92DF92EF9223
:1031E000FF920F931F93CF93DF932115310581F445
:1031F000DC01ED91FC910190F081E02D642FDF91D5
:10320000CF911F910F91FF90EF90DF90CF90099495
:103210002A30310501F577FF1DC06A017B01EC0101
:103220006DE20E9487188C0144275527BA014C197A
:103230005D096E097F092AE0CE010E94A418800F63
:10324000911FDF91CF911F910F91FF90EF90DF9031
:10325000CF9008952AE0DF91CF911F910F91FF90B9
:10326000EF90DF90CF900C94A4180F931F93CF93FF
:10327000DF93EC010E94ED188C01CE010E948E18A4
:10328000800F911FDF91CF911F910F9108950F93A0
:103290001F93CF93DF93EC010E94FB196887798716
:1032A0008A879B87E881F9810284F385E02DCE012E
:1032B000099597FF17C00E94FB19088519852A8573
:1032C0003B85DC01CB01801B910BA20BB30B0C8166
:1032D0001D812E813F8180179107A207B30710F34C
:1032E0008FEF9FEFDF91CF911F910F910895FC0118
:1032F00044835583668377830895AF92BF92CF92BC
:10330000DF92EF92FF920F931F93CF93DF932115DC
:103310003105C1F089015C016A01C0E0D0E0E62E10
:10332000F12CC5010E94471997FD0FC08E159F050E
:1033300061F0F60181936F0121960C171D0789F743
:10334000C80104C080E090E001C0CE01DF91CF91C0
:103350001F910F91FF90EF90DF90CF90BF90AF90B3
:1033600008951F920F920FB60F9211242F933F933F
:103370008F939F93AF93BF9380918C0490918D0412
:10338000A0918E04B0918F0430918B0423E0230F21
:103390002D3720F40196A11DB11D05C026E8230F8D
:1033A0000296A11DB11D20938B0480938C049093F1
:1033B0008D04A0938E04B0938F048091900490911B
:1033C0009104A0919204B09193040196A11DB11DA6
:1033D0008093900490939104A0939204B0939304EB
:1033E000BF91AF919F918F913F912F910F900FBE01
:1033F0000F901F9018952FB7F89460918C047091DE
:103400008D0480918E0490918F042FBF089578943D
:1034100084B5826084BD84B5816084BD85B58260D9
:1034200085BD85B5816085BDEEE6F0E08081816077
:103430008083E1E8F0E01082808182608083808177
:1034400081608083E0E8F0E0808181608083E1EB4F
:10345000F0E0808184608083E0EBF0E08081816037
:103460008083EAE7F0E080818460808380818260ED
:1034700080838081816080838081806880831092D6
:10348000C1000895CF93DF9390E0FC01E458FF4F13
:103490002491FC01E057FF4F8491882361F190E073
:1034A000880F991FFC01E854FF4FC591D491FC018E
:1034B000E255FF4FA591B491611109C09FB7F894EF
:1034C0008881209582238883EC912E230BC0623063
:1034D00061F49FB7F8948881322F309583238883D5
:1034E000EC912E2B2C939FBF06C08FB7F894E881E8
:1034F0002E2B28838FBFDF91CF910895DB018F930F
:103500009F930E94CF1ABF91AF91A29F800D911DF2
:10351000A39F900DB29F900D11240895A1E21A2E41
:10352000AA1BBB1BFD010DC0AA1FBB1FEE1FFF1F67
:10353000A217B307E407F50720F0A21BB30BE40BB7
:10354000F50B661F771F881F991F1A9469F76095FE
:103550007095809590959B01AC01BD01CF010895B8
:10356000052E97FB1EF400940E94C71A57FD07D042
:103570000E948E1A07FC03D04EF40C94C71A509583
:103580004095309521953F4F4F4F5F4F089590954F
:103590008095709561957F4F8F4F9F4F08950E9442
:1035A000E01AA59F900DB49F900DA49F800D911DD2
:1035B00011240895EE0FFF1F0590F491E02D09945A
:1035C000A29FB001B39FC001A39F700D811D112464
:1035D000911DB29F700D811D1124911D0895A0E0D1
:1035E000B0E0E5EFFAE10C941F1F5C016B017A017A
:1035F0006115710519F0FB0191838083E114F104D9
:1036000029F0C7010297839708F0E5C0E5012196EC
:10361000F5011081812F90E00E94231C892B11F06D
:103620005E01F4CF1D3229F42196F501118101E0EC
:1036300007C01B3221F4E5012296F501118100E05B
:10364000E114F10409F1F0E1EF16F10429F43FC0AF
:1036500010E3E114F10421F128E0E216F10401F194
:1036600054F4E2E0EE16F10421F5812C912CA12C0A
:10367000B0E4BB2E3EC0FAE0EF16F10439F020E1D1
:10368000E216F104B1F430C0103319F1FAE0EF2E74
:10369000F12CACEC8A2E982CA82CACE0BA2E29C0C8
:1036A00078E0E72EF12C812C912CA12CE0E1BE2EAC
:1036B00020C060E070E080E090E897010F2C000CE3
:1036C000440B550B0E948E1A49015A0112C0103347
:1036D00059F488818F7D883509F0BACF19812296F7
:1036E000026080E1E82EF12C812C912CA12C68E065
:1036F000B62E40E060E070E0CB0127010F2C000CFB
:1037000066087708FE0150ED352E310E29E02315AD
:1037100070F42FEB210F2A3118F439EC332E06C048
:103720002FE9210F2A3118F529EA322E310E232DE7
:1037300030E02E153F05DCF447FD16C086169706CF
:10374000A806B90670F0A30192010E947E1A630DCB
:10375000711D811D911D61307105810520E8920761
:1037600010F04FEF01C041E021961081CBCF202F08
:103770002170C114D10471F0442329F02197F6017E
:10378000D183C08307C001FF19C02297F601D183FE
:10379000C08314C047FF12C0222329F060E070E00C
:1037A00080E090E804C06FEF7FEF8FEF9FE722E2A9
:1037B00030E0309395042093940409C0222381F0D3
:1037C00090958095709561957F4F8F4F9F4F462FB5
:1037D000372F282F12C040E030E020E090E00DC0ED
:1037E00097FFF5CF82E290E0909395048093940444
:1037F0006FEF7FEF8FEF9FE7EACF642F732F822F5A
:10380000CDB7DEB7E1E10C943B1FFC018827992777
:10381000E89421912032E9F3293010F02E30C8F3DA
:103820002B3241F02D3239F4689404C00E94601CA0
:10383000820F911D219120532A30C0F31EF49095E0
:1038400081959F4F089591110C946B1E803219F051
:1038500089508550C8F708959111089581548A516F
:1038600008F4805E855A08954EE753E00E94391CA3
:103870000895FA01A191B081009719F41097E1F031
:10388000CD01DC01CD010D90002011F4C00113C069
:10389000FB012191222319F02015D9F7F3CFFB0169
:1038A0002191201519F41E92119606C02223C1F70A
:1038B0000D900020A1F7D001FA01A193B0830895E3
:1038C0007AE0979F902D879F802D910D1124089568
:1038D000AEE0B0E0EEE6FCE10C942C1F0D891E89F1
:1038E00086E08C831A8309838FEF9FE79E838D8305
:1038F000AE01475E5F4F6F89788DCE0101960E94C1
:103900008A1CEF81F885E00FF11F10822E96E4E00B
:103910000C94481FABE0B0E0E0E9FCE10C941E1F02
:103920006C017B018A01FC0117821682838181FF71
:10393000CCC1CE0101963C01F6019381F70193FDC4
:10394000859193FF81917F01882309F4BAC1853263
:1039500039F493FD859193FF81917F01853229F49C
:10396000B60190E00E94841EE7CF912C212C312CCF
:10397000FFE1F315D8F08B3279F038F4803279F02A
:103980008332A1F4232D20611DC08D3261F080337C
:1039900069F4232D216016C0832D8260382EE32D1B
:1039A000E4603E2E2AC0F32DF8601DC037FC2DC008
:1039B00020ED280F2A3040F08E32B9F436FC81C158
:1039C000232D2064322E19C036FE06C08AE0989E50
:1039D000200D1124922E11C0EAE02E9E200D1124FC
:1039E000222EF32DF0623F2E08C08C3621F4832D59
:1039F0008068382E02C0883641F4F70193FD859126
:103A000093FF81917F018111B3CF982F9F7D9554B2
:103A1000933028F40C5F1F4F9FE399830DC08336CA
:103A200031F0833771F0833509F059C021C0F801B6
:103A3000808189830E5F1F4F88248394912C5301CA
:103A400013C02801F2E04F0E511CF801A080B18094
:103A500036FE03C0692D70E002C06FEF7FEFC50135
:103A60000E94791E4C018201F32DFF773F2E16C074
:103A7000280122E0420E511CF801A080B18036FEE0
:103A800003C0692D70E002C06FEF7FEFC5010E9497
:103A90006E1E4C01F32DF0683F2E820133FC1BC0DB
:103AA000822D90E088169906B0F4B60180E290E08D
:103AB0000E94841E2A94F4CFF50137FC859137FECD
:103AC00081915F01B60190E00E94841E21102A942A
:103AD00021E0821A91088114910471F7E8C08436BC
:103AE00011F0893641F5F80137FE07C06081718118
:103AF000828193810C5F1F4F08C060817181072E06
:103B0000000C880B990B0E5F1F4FF32DFF763F2E95
:103B100097FF09C090958095709561957F4F8F4F65
:103B20009F4FF0683F2E2AE030E0A3010E94C01EA4
:103B3000882E861845C0853731F4232D2F7EB22E6E
:103B40002AE030E025C0932D997FB92E8F36C1F041
:103B500018F4883579F0B5C0803719F0883721F02E
:103B6000B0C0E92FE061BE2EB4FE0DC0FB2DF460A5
:103B7000BF2E09C034FE0AC0292F2660B22E06C00F
:103B800028E030E005C020E130E002C020E132E072
:103B9000F801B7FE07C060817181828193810C5F5B
:103BA0001F4F06C06081718180E090E00E5F1F4F63
:103BB000A3010E94C01E882E8618FB2DFF773F2E82
:103BC00036FE0DC0232D2E7FA22E891458F434FE0C
:103BD0000BC032FC09C0832D8E7EA82E05C0B82CE8
:103BE000A32C03C0B82C01C0B92CA4FE0FC0FE0149
:103BF000E80DF11D8081803321F49A2D997EA92E44
:103C000009C0A2FE06C0B394B39404C08A2D86787E
:103C100009F0B394A3FC11C0A0FE06C0B21488F44E
:103C2000280C922C9B180EC0B21460F4B60180E2EE
:103C300090E00E94841EB394F7CFB21418F42B18AE
:103C400002C0982C212CA4FE10C0B60180E390E0A5
:103C50000E94841EA2FE17C0A1FC03C088E790E06A
:103C600002C088E590E0B6010CC08A2D867859F034
:103C7000A1FE02C08BE201C080E2A7FC8DE2B6018A
:103C800090E00E94841E891438F4B60180E390E02D
:103C90000E94841E9A94F7CF8A94F301E80DF11DD7
:103CA0008081B60190E00E94841E8110F5CF222011
:103CB00009F442CEB60180E290E00E94841E2A946C
:103CC000F6CFF6018681978102C08FEF9FEF2B968A
:103CD000E2E10C943A1F992788270895FC0105908A
:103CE000615070400110D8F7809590958E0F9F1FFE
:103CF0000895FC016150704001900110D8F7809543
:103D000090958E0F9F1F08950F931F93CF93DF936E
:103D1000FB01238121FD03C08FEF9FEF2CC022FF09
:103D200016C046815781248135814217530744F4D8
:103D3000A081B1819D012F5F3F4F318320838C9300
:103D4000268137812F5F3F4F3783268314C08B0135
:103D5000EC01FB010084F185E02D0995892BE1F64A
:103D6000D80116968D919C911797019617969C9362
:103D70008E931697CE01DF91CF911F910F910895E9
:103D8000FA01AA27283051F1203181F1E8946F938C
:103D90006E7F6E5F7F4F8F4F9F4FAF4FB1E03ED032
:103DA000B4E03CD0670F781F891F9A1FA11D680FD0
:103DB000791F8A1F911DA11D6A0F711D811D911D03
:103DC000A11D20D009F468943F912AE0269F112478
:103DD0003019305D3193DEF6CF010895462F4770DC
:103DE000405D4193B3E00FD0C9F7F6CF462F4F7037
:103DF000405D4A3318F0495D31FD4052419302D095
:103E0000A9F7EACFB4E0A69597958795779567953A
:103E1000BA95C9F700976105710508959B01AC013A
:103E20000A2E06945795479537952795BA95C9F761
:103E3000620F731F841F951FA01D08952F923F923C
:103E40004F925F926F927F928F929F92AF92BF92AA
:103E5000CF92DF92EF92FF920F931F93CF93DF9356
:103E6000CDB7DEB7CA1BDB0B0FB6F894DEBF0FBEB3
:103E7000CDBF09942A88398848885F846E847D8400
:103E80008C849B84AA84B984C884DF80EE80FD8002
:103E90000C811B81AA81B981CE0FD11D0FB6F89478
:103EA000DEBF0FBECDBFED01089510E0C3E6D0E048
:103EB00004C0FE010E94DA1A2196C436D107C9F760
:043EC000F894FFCFA4
:103EC400686F6D6500676574537465707300747210
:103ED40061766572736552504D00737461747573C5
:103EE4000073746F700072756E4D6F6465006D6F52
:103EF40076654162736F6C7574650073706F6F6C77
:103F040052504D00696E6E65724F6666736574003B
:103F140073706F6F6C57696474680066696C616D67
:103F2400656E744469616D65746572006D6F766564
:103F3400546F456E64000001E500050104010E01A3
:103F44002B011A01EF012101520226016C022E01FC
:103F540011033B01D30344011E045001C4045B015B
:103F64006A056C011006C4010000050004008813F2
:103F74000000D00732006400000060EA0000D606AA
:103F84000000010100486F6D696E6720506C656127
:103F9400736520576169742E2E2E00496E76616C0C
:103FA40069642072706D2C206E756D626572206973
:103FB40073206E6F742061206469676974004D6FAB
:103FC40074696F6E20436F6E74726F6C6C65723AB5
:103FD400200052756E6E696E6720696E2053656DA0
:103FE40069204175746F0052756E6E696E67206941
:103FF4006E2046756C6C204175746F0052756E6E40
:10400400696E6720696E204D616E75616C00486F42
:104014006D696E672E2E2E00506C616E6E65722077
:1040240053746F707065642E2E2E00496E76616C29
:1040340069642072756E206D6F64652C206E756DD9
:10404400626572206973206E6F74206120646967F1
:10405400697400496E76616C696420706F73697469
:10406400696F6E2C206E756D626572206973206EA7
:104074006F74206120646967697400496E76616CAD
:104084006964206F66667365742C206E756D626555
:1040940072206973206E6F7420612064696769748B
:1040A40000496E76616C69642077696474682C20B9
:1040B4006E756D626572206973206E6F7420612065
:1040C40064696769740025640025643B25733B2596
:1040D400730025643B25733B256C75003B00496EDA
:1040E40076616C6964204861726477617265204905
:1040F400442C206E756D626572206973206E6F7436
:10410400206120646967697400496E76616C696432
:1041140020486172647761726520494400000000A0
:1041240000D3164618941620176616801672160DBC
:0E4134000A006E616E00696E66006F766600AE
:00000001FF
