:100000000C9464000C942C0A0C945D0A0C948E0AD7
:100010000C943B0B0C94E80B0C948C000C948C000F
:100020000C948C000C948C000C948C000C949F0D00
:100030000C948C000C94AB0C0C948C000C948C00E5
:100040000C94E8180C948C000C94DE160C94101789
:100050000C948C000C948C000C948C000C948C00F0
:100060000C948C000C948C0000010203040506071C
:100070000001020304050001020304050102040853
:100080001020408001020408102001020408102002
:10009000040404040404040402020202020203032E
:1000A00003030303000000002300260029000000D2
:1000B0000000250028002B0000000000240027007D
:1000C0002A004A154017571511241FBECFEFD8E05C
:1000D000DEBFCDBF13E0A0E0B1E0E2E3FDE302C08C
:1000E00005900D92A037B107D9F724E0A0E7B3E05F
:1000F00001C01D92A738B207E1F710E0C3E6D0E0D7
:1001000004C02197FE010E94111AC136D107C9F718
:100110000E946E170C948C1E0C940000CF93DF93FA
:1001200000D0CDB7DEB79A83898300000F900F907F
:10013000DF91CF910895CF93DF93CDB7DEB78AE7F4
:1001400090E02AE730E0F90120812460FC0120835F
:100150008AE790E02AE730E0F90120812D7FFC0159
:1001600020838AE790E02AE730E0F90120812E7FA2
:10017000FC0120830000DF91CF910895CF93DF939E
:1001800000D0CDB7DEB79A83898300000F900F901F
:10019000DF91CF910895CF93DF9300D0CDB7DEB735
:1001A0009A83898300000F900F90DF91CF9108957B
:1001B000CF93DF9300D0CDB7DEB79A838983000059
:1001C0000F900F90DF91CF910895CF93DF9300D0E0
:1001D00000D000D0CDB7DEB79A8389837C836B8350
:1001E0005E834D8367EB71E08FED93E00E94C9174A
:1001F0001092B401000026960FB6F894DEBF0FBE31
:10020000CDBFDF91CF910895CF93DF9300D000D081
:1002100000D0CDB7DEB79A8389837C836B835E83FE
:100220004D838091CE039091CF03A091D003B091E4
:10023000D1032AE030E0AC01BD018FED93E00E94D4
:100240006C18000026960FB6F894DEBF0FBECDBF27
:10025000DF91CF910895CF93DF93CDB7DEB7C85428
:10026000D1090FB6F894DEBF0FBECDBF9E012D5B46
:100270003F4FF90191838083CE018B5B9F4FFC013F
:1002800071836083CE01895B9F4FFC015183408362
:10029000CE01895B9F4FFC0180819181892B09F4FC
:1002A0006AC01A82198289819A819E01295B3F4F17
:1002B000F90120813181820F931FFC018081882305
:1002C00029F189819A819E01295B3F4FF9012081A3
:1002D0003181820F931FFC018081882F90E0C097AD
:1002E0000A9710F081E001C080E0882349F06DECAE
:1002F00071E08FED93E00E94C91780E090E05FC04D
:1003000089819A8101969A838983CDCFCE01895BB9
:100310009F4FFC01808191814AE050E060E070E0F5
:100320000E94261ADC01CB018B839C83AD83BE83A4
:100330008B819C81AD81BE8189359240A105B1053B
:1003400068F48B819C81AD81BE818093D6039093AC
:10035000D703A093D803B093D90331C088E592E0C6
:10036000A0E0B0E08093D6039093D703A093D80386
:10037000B093D90324C02CE3CE010796FC01322FA1
:1003800011923A95E9F78091D6039091D703A09105
:10039000D803B091D9039C01CE018B5B9F4FFC0128
:1003A00040815181CE01079663E070E00E94100603
:1003B000CE010796BC018FED93E00E94C917C85B80
:1003C000DF4F0FB6F894DEBF0FBECDBFDF91CF91E8
:1003D0000895CF93DF9300D000D000D0CDB7DEB723
:1003E0009A8389837C836B835E834D8360EF71E0A6
:1003F0008FED93E00E94BC179091B40181E093309F
:1004000009F080E0882331F064E072E08FED93E042
:100410000E94C9179091B40181E0943009F080E006
:10042000882331F069E172E08FED93E00E94C917F3
:100430009091B40181E0923009F080E0882331F09E
:100440006EE272E08FED93E00E94C9179091B401C3
:1004500081E0992309F080E0882331F060E472E0C4
:100460008FED93E00E94C9179091B40181E0913023
:1004700009F080E0882331F06AE472E08FED93E0C8
:100480000E94C917000026960FB6F894DEBF0FBE73
:10049000CDBFDF91CF910895CF93DF9300D000D0EF
:1004A00000D0CDB7DEB79A8389837C836B835E836C
:1004B0004D8381E08093B401000026960FB6F89436
:1004C000DEBF0FBECDBFDF91CF910895CF93DF93F5
:1004D000CDB7DEB7C654D1090FB6F894DEBF0FBE54
:1004E000CDBF9E012F5B3F4FF90191838083CE01E9
:1004F0008D5B9F4FFC0171836083CE018B5B9F4FAF
:10050000FC0151834083CE018B5B9F4FFC018081B6
:100510009181892B09F44DC01A82198289819A81AF
:100520009E012B5B3F4FF90120813181820F931F88
:10053000FC018081882329F189819A819E012B5BAE
:100540003F4FF90120813181820F931FFC0180818F
:10055000882F90E0C0970A9710F081E001C080E0FA
:10056000882349F06DE572E08FED93E00E94C91792
:1005700080E090E03DC089819A8101969A838983C9
:10058000CDCFCE018B5B9F4FFC01808191814AE0F2
:1005900050E060E070E00E94261ADC01CB019C83F1
:1005A0008B838B819C81059718F58B818093B40197
:1005B0001FC02CE3CE010596FC01322F11923A9513
:1005C000E9F78091B401282F30E0CE018D5B9F4F79
:1005D000FC0140815181CE01059663E070E00E94EC
:1005E0001006CE010596BC018FED93E00E94C9175D
:1005F000CA5BDF4F0FB6F894DEBF0FBECDBFDF91F1
:10060000CF910895CF93DF93CDB7DEB72C970FB678
:10061000F894DEBF0FBECDBF98878F837A87698736
:100620005C874B878B859C85892B09F4A4C01A8233
:10063000198289819A812B853C85820F931FFC0149
:100640008081882309F189819A812B853C85820FDD
:10065000931FFC018081882F90E0C0970A9710F0CB
:1006600081E001C080E0882349F065E872E08FED09
:1006700093E00E94C91780E090E07DC089819A8153
:1006800001969A838983D5CF8B859C854AE050E07B
:1006900060E070E00E94261ADC01CB018B839C8312
:1006A000AD83BE832B813C814D815E8188EE93E0DA
:1006B000DC010E94061ADC01CB0124E336E040E0B5
:1006C00050E0BC01CD010E94E719DA01C9018B831A
:1006D0009C83AD83BE838B819C81AD81BE81BB2316
:1006E000ACF08B819C81AD81BE81863C9242A14061
:1006F000B10564F48B819C81AD81BE818093D2036E
:100700009093D303A093D403B093D5032091D20345
:100710003091D3034091D4035091D50380E89CE0FD
:10072000DC010E94061ADC01CB0128EE33E040E038
:1007300050E0BC01CD010E94E719DA01C9018093A4
:10074000D2039093D303A093D403B093D5038091A5
:10075000D2039091D303A091D403B091D503880F15
:10076000991FAA1FBB1F8093D2039093D303A0931A
:10077000D403B093D5032C960FB6F894DEBF0FBE0A
:10078000CDBFDF91CF910895CF93DF93CDB7DEB783
:10079000C254D1090FB6F894DEBF0FBECDBF9EAFD5
:1007A0008DAFCE01CF96FC0171836083CE018F5B4C
:1007B0009F4FFC01518340832CE3CE010196FC0145
:1007C000322F11923A95E9F72091DA033091DB0349
:1007D000CE01CF96FC0180819181AC0163E070E095
:1007E000CE0101960E941006CE010196BC018FED4C
:1007F00093E00E94C9170000CE5BDF4F0FB6F8945C
:10080000DEBF0FBECDBFDF91CF910895CF93DF93B1
:10081000CDB7DEB7C454D1090FB6F894DEBF0FBE12
:10082000CDBF9E01215C3F4FF90191838083CE01B2
:100830008F5B9F4FFC0171836083CE018D5B9F4F67
:10084000FC0151834083CE018D5B9F4FFC01808171
:100850009181892B09F44CC01A82198289819A816D
:100860009E012D5B3F4FF90120813181820F931F43
:10087000FC018081882329F189819A819E012D5B69
:100880003F4FF90120813181820F931FFC0180814C
:10089000882F90E0C0970A9710F081E001C080E0B7
:1008A000882349F06DEA72E08FED93E00E94C9174A
:1008B00080E090E041C089819A8101969A83898382
:1008C000CDCFCE018D5B9F4FFC01808191814AE0AD
:1008D00050E060E070E00E94261ADC01CB018093BA
:1008E000A8019093A901A093AA01B093AB0124C0E1
:1008F0002CE3CE010396FC01322F11923A95E9F7D1
:100900008091A8019091A901A091AA01B091AB0199
:100910009C01CE018F5B9F4FFC0140815181CE0134
:10092000039663E070E00E941006CE010396BC01BE
:100930008FED93E00E94C917CC5BDF4F0FB6F894A0
:10094000DEBF0FBECDBFDF91CF910895CF93DF9370
:10095000CDB7DEB7C454D1090FB6F894DEBF0FBED1
:10096000CDBF9E01215C3F4FF90191838083CE0171
:100970008F5B9F4FFC0171836083CE018D5B9F4F26
:10098000FC0151834083CE018D5B9F4FFC01808130
:100990009181892B09F44CC01A82198289819A812C
:1009A0009E012D5B3F4FF90120813181820F931F02
:1009B000FC018081882329F189819A819E012D5B28
:1009C0003F4FF90120813181820F931FFC0180810B
:1009D000882F90E0C0970A9710F081E001C080E076
:1009E000882349F063ED72E08FED93E00E94C91710
:1009F00080E090E041C089819A8101969A83898341
:100A0000CDCFCE018D5B9F4FFC01808191814AE06B
:100A100050E060E070E00E94261ADC01CB01809378
:100A2000AC019093AD01A093AE01B093AF0124C08F
:100A30002CE3CE010396FC01322F11923A95E9F78F
:100A40008091AC019091AD01A091AE01B091AF0148
:100A50009C01CE018F5B9F4FFC0140815181CE01F3
:100A6000039663E070E00E941006CE010396BC017D
:100A70008FED93E00E94C917CC5BDF4F0FB6F8945F
:100A8000DEBF0FBECDBFDF91CF910895CF93DF932F
:100A9000CDB7DEB7C454D1090FB6F894DEBF0FBE90
:100AA000CDBF9E01215C3F4FF90191838083CE0130
:100AB0008F5B9F4FFC0171836083CE018D5B9F4FE5
:100AC000FC0151834083CE018D5B9F4FFC018081EF
:100AD0009181892B09F44CC01A82198289819A81EB
:100AE0009E012D5B3F4FF90120813181820F931FC1
:100AF000FC018081882329F189819A819E012D5BE7
:100B00003F4FF90120813181820F931FFC018081C9
:100B1000882F90E0C0970A9710F081E001C080E034
:100B2000882349F063ED72E08FED93E00E94C917CE
:100B300080E090E041C089819A8101969A838983FF
:100B4000CDCFCE018D5B9F4FFC01808191814AE02A
:100B500050E060E070E00E94261ADC01CB01809337
:100B6000B0019093B101A093B201B093B30124C03E
:100B70002CE3CE010396FC01322F11923A95E9F74E
:100B80008091B0019091B101A091B201B091B301F7
:100B90009C01CE018F5B9F4FFC0140815181CE01B2
:100BA000039663E070E00E941006CE010396BC013C
:100BB0008FED93E00E94C917CC5BDF4F0FB6F8941E
:100BC000DEBF0FBECDBFDF91CF910895CF93DF93EE
:100BD000CDB7DEB7C258D1090FB6F894DEBF0FBE4D
:100BE000CDBF9E012F573F4FF90191838083CE01E6
:100BF00001960E9467066CE671E0CE0101960E94A4
:100C00008E06CE0101960E9428080000CE57DF4FC5
:100C10000FB6F894DEBF0FBECDBFDF91CF91089520
:100C2000CF93DF93CDB7DEB728970FB6F894DEBF2A
:100C30000FBECDBF9A8389837C836B835E834D8394
:100C400038872F8388858F938F818F938E818F93A1
:100C50008D818F938C818F938B818F9384E093E030
:100C6000892F8F9384E093E08F938A818F9389817A
:100C70008F930E949F1B8DB79EB70A960FB6F8946C
:100C8000DEBF0FBECDBF000028960FB6F894DEBFC2
:100C90000FBECDBFDF91CF910895CF93DF9300D0EA
:100CA000CDB7DEB79A83898300000F900F90DF9154
:100CB000CF910895CF93DF9300D0CDB7DEB79A835D
:100CC000898300000F900F90DF91CF910895CF930B
:100CD000DF9300D0CDB7DEB79A83898389819A816B
:100CE000FC01108289819A81FC01118289819A819B
:100CF0002CE30296FC01322F11923A95E9F7898193
:100D00009A812CE3CE96FC01322F11923A95E9F7A5
:100D100000000F900F90DF91CF910895CF93DF9354
:100D200000D000D0CDB7DEB79A8389837C836B83F4
:100D30008FED93E00E949D1521E0181619060CF026
:100D400020E0222319F189819A8102962CE330E078
:100D5000AC016AE08FED93E00E94B418282F8981DE
:100D60009A81FC01208389819A81FC018081882FEE
:100D700090E029813A81820F931F0296FC01108234
:100D800089819A810296892B09F103C080E090E065
:100D90001FC089819A81AC014E5F5F4F2B813C81DE
:100DA00089819A81B9010E94EF0689819A81FC01AB
:100DB000108289819A81FC018081882F90E02981AD
:100DC0003A81820F931F0296FC01108280E090E02E
:100DD0000F900F900F900F90DF91CF910895CF93C8
:100DE000DF93CDB7DEB72E970FB6F894DEBF0FBEF8
:100DF000CDBF9A8789877C876B875E874D878D8576
:100E00009E856DE073E00E946B1B9C0189859A852D
:100E100086589F4FFC01318320836DE073E080E0B2
:100E200090E00E946B1B9C0189859A8584589F4F96
:100E3000FC01318320836DE073E080E090E00E944C
:100E40006B1B9C0189859A8582589F4FFC013183D9
:100E500020831A82198289859A8586589F4FFC01C2
:100E60002081318189819A81820F931FFC018081C9
:100E7000882331F189859A8586589F4FFC0120810E
:100E8000318189819A81820F931FFC018081882F93
:100E900090E0C0970A9710F081E001C080E08823BD
:100EA00049F06FE073E08FED93E00E94C91780E096
:100EB00090E079C089819A8101969A838983CBCF0A
:100EC00089859A8586589F4FFC01808191810E9477
:100ED0003C1B039749F06AE373E08FED93E00E94B7
:100EE000C91780E090E05FC01C821B828B819C81CF
:100EF000880F991F880F991F2B853C85820F931FA0
:100F0000FC0180819181A281B3818D839E83AF8317
:100F1000B8878F819885892B09F443C04D815E8104
:100F200089859A8584589F4FFC012081318189856C
:100F30009A85B9010E94DC0721E0892B09F020E0A5
:100F40002223B1F02F81388589859A8582589F4F59
:100F5000FC014081518189859A8584589F4FFC010D
:100F600080819181BC0180E090E0F90109951BC06E
:100F70008B819C8101969C838B838B819C81880FC4
:100F8000991F880F991F2B853C85820F931FFC01A9
:100F900080819181A281B3818D839E83AF83B88745
:100FA000B8CF81E090E02E960FB6F894DEBF0FBE6A
:100FB000CDBFDF91CF9108950F931F93CF93DF9310
:100FC000CDB7DEB728970FB6F894DEBF0FBECDBF02
:100FD0009C838B837E836D8358874F838D819E8115
:100FE000FC018081882F90E00E94631B8C018F811F
:100FF0009885FC018081882F90E00E94631B9801F6
:10100000281B390BC9019A83898389819A81892B8D
:1010100031F48D819E81FC018081882319F48981BE
:101020009A810BC08D819E8101969E838D838F81D5
:101030009885019698878F83D1CF28960FB6F8941C
:10104000DEBF0FBECDBFDF91CF911F910F910895ED
:10105000CF93DF9300D0CDB7DEB79A8389830000AA
:101060000F900F90DF91CF910895CF93DF9300D031
:1010700000D000D0CDB7DEB79A8389834B835C83E1
:101080006D837E838B819C81AD81BE81E981FA81F4
:1010900026E0AC01BD01CF010E9479160000269622
:1010A0000FB6F894DEBF0FBECDBFDF91CF9108958C
:1010B000CF93DF93CDB7DEB7A0970FB6F894DEBF1E
:1010C0000FBECDBF8D8F7F8F6E8F48A319821A827E
:1010D0008D8D8F778B838D8D882344F08B8182302B
:1010E00009F430C18B81833009F42CC18B81882FA6
:1010F00090E084589F4F9E838D838D819E81FC015B
:1011000084918F838F818A838B81882F90E0805791
:101110009F4F9987888788859985FC0184918A8764
:101120008A85898388A1833019F088A18130D9F418
:101130008981823031F49091A0038A81892B809338
:10114000A0038981833031F49091A3038A81892B94
:101150008093A3038981843031F49091A6038A811E
:10116000892B8093A60388A1823019F088A1813051
:10117000D9F48981823031F49091A1038A81892B3D
:101180008093A1038981833031F49091A4038A81F3
:10119000892B8093A4038981843031F49091A70333
:1011A0008A81892B8093A7038B81882F90E08859AF
:1011B0009F4F9C878B878B859C85FC0184918D87B5
:1011C0008D858E8789818230C1F58E85882F90E04C
:1011D000880F991F88589C4F988B8F878F85988987
:1011E0002E8D3F8DFC01318320838981882F90E0F3
:1011F000880F991F8C559F4F9A8B898B89899A8963
:10120000FC0125913491CF013C8B2B8B9A8B898BE0
:101210008B899C89FC0180818093A2038BE690E0FE
:10122000909373038093720388E690E028E630E0A1
:10123000F90120812160FC01208389818330C1F57F
:101240008E85882F90E0880F991F8C579C4F988B24
:101250008F878F8598892E8D3F8DFC013183208368
:101260008981882F90E0880F991F8C559F4F9E8B06
:101270008D8B8D899E89FC0125913491CF01388F0A
:101280002F8B9E8B8D8B8F89988DFC018081809315
:10129000A5038CE690E0909373038093720388E635
:1012A00090E028E630E0F90120812260FC012083F3
:1012B00089818430C1F58E85882F90E0880F991F31
:1012C00080579C4F988B8F878F8598892E8D3F8D67
:1012D000FC01318320838981882F90E0880F991F3A
:1012E0008C559F4F9A8F898F898D9A8DFC012591FE
:1012F0003491CF013C8F2B8F9A8F898F8B8D9C8D52
:10130000FC0180818093A8038DE690E090937303A5
:101310008093720388E690E028E630E0F9012081AE
:101320002460FC01208380917203909173032091CB
:10133000720330917303F90130812A81232BFC0160
:10134000208380C08FE590E0FC0180818C83F8943D
:101350008B818230A1F58E8D9F8D90937503809344
:1013600074038DE390E02DE330E0F90120812E7FBE
:10137000FC01208389E690E029E630E0F901208134
:101380002C7FFC01208389E690E029E630E0F9011A
:10139000308128A1232BFC0120838CE390E02CE3F7
:1013A00030E0F90120812160FC0120838DE390E091
:1013B0002DE330E0F90120812160FC0120838B8145
:1013C0008330D9F58E8D9F8D90937703809376032C
:1013D0008DE390E02DE330E0F90120812D7FFC01C9
:1013E000208389E690E029E630E0F9012081237F1F
:1013F000FC01208389E690E029E630E0F9012081B4
:10140000422F28A1222F30E0220F331F220F331F3B
:10141000242BFC0120838CE390E02CE330E0F901E5
:1014200020812260FC0120838DE390E02DE330E0F9
:10143000F90120812260FC0120838FE590E02C815E
:10144000FC0120830000A0960FB6F894DEBF0FBE0B
:10145000CDBFDF91CF9108951F920F9200905F0052
:101460000F9211242F933F934F935F936F937F932A
:101470008F939F93AF93BF93EF93FF93CF93DF939C
:10148000CDB7DEB78091740390917503FC01099587
:101490000000DF91CF91FF91EF91BF91AF919F91AC
:1014A0008F917F916F915F914F913F912F910F900D
:1014B00000925F000F901F9018951F920F9200905E
:1014C0005F000F9211242F933F934F935F936F937D
:1014D0007F938F939F93AF93BF93EF93FF93CF939C
:1014E000DF93CDB7DEB78091760390917703FC014F
:1014F00009950000DF91CF91FF91EF91BF91AF91DE
:101500009F918F917F916F915F914F913F912F911B
:101510000F9000925F000F901F9018951F920F92EE
:1015200000905F000F9211242F933F934F935F938E
:101530006F937F938F939F93AF93BF93EF93FF939B
:10154000CF93DF9300D000D0CDB7DEB783E290E039
:10155000FC01808189839091A203898189278A83F4
:101560009091A003898189238B83898180959091B3
:10157000A10389238C839C818B81892B8C839C8103
:101580008A8189238C838BE690E0FC0180819C8199
:1015900089238C8389818093A2038C81882309F419
:1015A0004FC08C81882F90E081709927892B31F072
:1015B0008091780390917903FC0109958C81882FA3
:1015C00090E082709927892B31F080917A03909175
:1015D0007B03FC0109958C81882F90E0847099270A
:1015E000892B31F080917C0390917D03FC0109955A
:1015F0008C81882F90E088709927892B31F0809119
:101600007E0390917F03FC0109958C81882F90E0E7
:1016100080719927892B31F080918003909181030B
:10162000FC0109958C81882F90E080729927892B85
:1016300049F08091820390918303FC01099501C0D8
:101640000000000000000F900F900F900F90DF91AE
:10165000CF91FF91EF91BF91AF919F918F917F912A
:101660006F915F914F913F912F910F9000925F008A
:101670000F901F9018951F920F9200905F000F928D
:1016800011242F933F934F935F936F937F938F9387
:101690009F93AF93BF93EF93FF93CF93DF9300D0CC
:1016A00000D0CDB7DEB786E290E0FC01808189836F
:1016B0009091A503898189278A839091A3038981C9
:1016C00089238B83898180959091A40389238C83BE
:1016D0009C818B81892B8C839C818A8189238C833B
:1016E0008CE690E0FC0180819C8189238C83898138
:1016F0008093A5038C81882309F44FC08C81882FA7
:1017000090E081709927892B31F08091840390912A
:101710008503FC0109958C81882F90E082709927C0
:10172000892B31F08091860390918703FC01099504
:101730008C81882F90E084709927892B31F08091DB
:10174000880390918903FC0109958C81882F90E092
:1017500088709927892B31F080918A0390918B03AF
:10176000FC0109958C81882F90E080719927892B45
:1017700031F080918C0390918D03FC0109958C814F
:10178000882F90E080729927892B49F080918E03F1
:1017900090918F03FC01099501C00000000000003A
:1017A0000F900F900F900F90DF91CF91FF91EF91DD
:1017B000BF91AF919F918F917F916F915F914F9169
:1017C0003F912F910F9000925F000F901F901895FE
:1017D0001F920F9200905F000F9211242F933F935E
:1017E0004F935F936F937F938F939F93AF93BF9329
:1017F000EF93FF93CF93DF9300D000D0CDB7DEB748
:1018000089E290E0FC01808189839091A80389811D
:1018100089278A839091A603898189238B83898173
:1018200080959091A70389238C839C818B81892B40
:101830008C839C818A8189238C838DE690E0FC01D6
:1018400080819C8189238C8389818093A8038C81EA
:10185000882309F465C08C81882F90E081709927D6
:10186000892B31F08091900390919103FC010995AF
:101870008C81882F90E082709927892B31F080919C
:10188000920390919303FC0109958C81882F90E03D
:1018900084709927892B31F080919403909195035E
:1018A000FC0109958C81882F90E088709927892BFD
:1018B00031F08091960390919703FC0109958C81FA
:1018C000882F90E080719927892B31F080919803BF
:1018D00090919903FC0109958C81882F90E080728A
:1018E0009927892B31F080919A0390919B03FC01F9
:1018F00009958C81882F90E080749927892B31F08D
:1019000080919C0390919D03FC0109958C81882313
:101910004CF480919E0390919F03FC01099501C0B6
:101920000000000000000F900F900F900F90DF91CB
:10193000CF91FF91EF91BF91AF919F918F917F9147
:101940006F915F914F913F912F910F9000925F00A7
:101950000F901F9018951F920F9200905F000F92AA
:1019600011242F933F934F935F936F937F938F93A4
:101970009F93AF93BF93EF93FF93CF93DF93CDB735
:10198000DEB72697DEBFCDBF24E830E08091A0010E
:101990009091A101A091A201B091A3018095909591
:1019A000F901918380839091B40181E0913009F431
:1019B00080E0882309F4A8C02091D2033091D3039A
:1019C0004091D4035091D5038091CE039091CF03E1
:1019D000A091D003B091D10361E0281739074A07DD
:1019E0005B0709F460E0662311F00E942012209149
:1019F000D2033091D3034091D4035091D503809109
:101A0000CE039091CF03A091D003B091D10361E0B8
:101A100082179307A407B5070CF060E0662351F125
:101A200080919E0190919F0184589F4F9A83898352
:101A300089819A81FC0184918B834B818BE290E0B8
:101A40002BE230E0F9012081242BFC0120838091DE
:101A5000CE039091CF03A091D003B091D103019612
:101A6000A11DB11D8093CE039093CF03A093D0030B
:101A7000B093D1032091D2033091D3034091D4038A
:101A80005091D5038091CE039091CF03A091D003C4
:101A9000B091D10361E0281739074A075B070CF0C2
:101AA00060E0662389F180919E0190919F018458A6
:101AB0009F4F9D838C838C819D81FC0184918E83BB
:101AC0008E81882F90E0AC01409550958BE290E09C
:101AD0002BE230E0F9012081322F242F2323FC0157
:101AE00020838091CE039091CF03A091D003B09139
:101AF000D1030197A109B1098093CE039093CF033D
:101B0000A093D003B093D103000026960FB6F894AB
:101B1000DEBF0FBECDBFDF91CF91FF91EF91BF919F
:101B2000AF919F918F917F916F915F914F913F9175
:101B30002F910F9000925F000F901F9018951F92A9
:101B40000F9200905F000F9211242F933F934F93B9
:101B50005F936F937F938F939F93AF93BF93EF9315
:101B6000FF93CF93DF93CDB7DEB72697DEBFCDBF10
:101B70009091B40181E0913009F480E0882309F468
:101B8000A8C02091D2033091D3034091D403509147
:101B9000D5038091CE039091CF03A091D003B09153
:101BA000D10361E0281739074A075B0709F460E0B1
:101BB000662311F00E9420122091D2033091D303AA
:101BC0004091D4035091D5038091CE039091CF03DF
:101BD000A091D003B091D10361E082179307A407CD
:101BE000B5070CF060E0662351F180919E01909161
:101BF0009F0184589F4F9A83898389819A81FC0130
:101C000084918B834B818BE290E02BE230E0F901F1
:101C10002081242BFC0120838091CE039091CF035F
:101C2000A091D003B091D1030196A11DB11D809365
:101C3000CE039093CF03A093D003B093D103209110
:101C4000D2033091D3034091D4035091D5038091B6
:101C5000CE039091CF03A091D003B091D10361E066
:101C6000281739074A075B070CF060E0662389F103
:101C700080919E0190919F0184589F4F9D838C83FA
:101C80008C819D81FC0184918E838E81882F90E0D0
:101C9000AC01409550958BE290E02BE230E0F901E9
:101CA0002081322F242F2323FC0120838091CE0317
:101CB0009091CF03A091D003B091D1030197A109D6
:101CC000B1098093CE039093CF03A093D003B09338
:101CD000D103000026960FB6F894DEBF0FBECDBF2D
:101CE000DF91CF91FF91EF91BF91AF919F918F9134
:101CF0007F916F915F914F913F912F910F90009243
:101D00005F000F901F901895CF93DF93CDB7DEB78C
:101D10000E943219DC01CB018093CA039093CB035C
:101D2000A093CC03B093CD032091CA033091CB0391
:101D30004091CC035091CD038091C6039091C7038D
:101D4000A091C803B091C903281739074A075B0758
:101D500009F46CC08091CA039091CB03A091CC038D
:101D6000B091CD038093C6039093C703A093C8039B
:101D7000B093C9038091AE039091AF03A091B003DB
:101D8000B091B10321E0892B8A2B8B2B09F020E045
:101D9000222361F00E943219DC01CB018093B2034F
:101DA0009093B303A093B403B093B5038091AE03B3
:101DB0009091AF03A091B003B091B1030196A11D22
:101DC000B11D8093AE039093AF03A093B003B09383
:101DD000B1039091DC0381E08927882371F0809121
:101DE000AE039091AF03A091B003B091B1030A97F5
:101DF000A105B10514F081E001C080E0882319F04D
:101E000081E08093DC038091BE039091BF03A09199
:101E1000C003B091C1030196A11DB11D8093BE0303
:101E20009093BF03A093C003B093C1030000DF9160
:101E3000CF910895CF93DF9300D0CDB7DEB761E0A7
:101E400083E00E94791980919E0190919F0161E049
:101E50000E94791980919C0190919D0160E00E94FF
:101E6000791960E086E00E94791941E064E87EE03B
:101E700086E00E945808CE0101960E948E00CE0195
:101E800002960E9464150E949B000E94711540E01A
:101E900052EC61E070E08FED93E00E94350842E380
:101EA00050E060E070E08FED93E00E94AE18109279
:101EB000B401CE0102960E949015CE0101960E94B7
:101EC000BE0000000F900F90DF91CF910895CF9248
:101ED000DF92EF92FF920F931F93CF93DF93CDB7D3
:101EE000DEB72C970FB6F894DEBF0FBECDBF8DEDD9
:101EF00093E00E94E60589E290E0FC018081882F52
:101F000090E08072992721E0892B09F420E020934A
:101F1000AD039091B40181E0923009F080E0882314
:101F200029F18091D6039091D703A091D803B09165
:101F3000D9032091A9033091AA034091AB0350919A
:101F4000AC0361E082179307A407B50709F460E0CA
:101F5000662361F08091D6039091D703A091D803B6
:101F6000B091D903BC01CD010E9496149091B401A7
:101F700081E0933009F080E0882309F475C09091E6
:101F8000B50181E0913009F080E0882341F1C090F3
:101F9000D603D090D703E090D803F090D9032091D6
:101FA000AC013091AD014091AE015091AF018091F3
:101FB000A8019091A901A091AA01B091AB01820F53
:101FC000931FA41FB51FBC01CD010E943B14DC016F
:101FD000CB01A7019601BC01CD010E944012909156
:101FE000B50181E0992309F080E08823E1F0C090F9
:101FF000D603D090D703E090D803F090D903809116
:10200000A8019091A901A091AA01B091AB01BC01D6
:10201000CD010E943B14DC01CB01A7019601BC015C
:10202000CD010E9440122091CE033091CF03409108
:10203000D0035091D1038091D2039091D303A0910A
:10204000D403B091D50361E0281739074A075B072D
:1020500009F060E0662341F09091B50181E0913094
:1020600009F480E08093B5019091B40181E094304F
:1020700009F080E0882309F44BC10E9432197B01EA
:102080008C018091A6019091A7019C01990F440BAE
:10209000550B8091B6039091B703A091B803B0910E
:1020A000B903820F931FA41FB51F21E08E159F0552
:1020B000A007B10708F020E0222309F429C180918C
:1020C000A8019091A901A091AA01B091AB01BC0116
:1020D000CD010E943B14DC01CB019C01AD0180913C
:1020E000CE039091CF03A091D003B091D10361E0D2
:1020F00082179307A407B5070CF060E0662351F13F
:102100008091A8019091A901A091AA01B091AB0181
:10211000BC01CD010E943B14DC01CB0128E532E07B
:1021200040E050E0BC01CD010E94401281E080936C
:10213000B5011092C2031092C3031092C40310920F
:10214000C5031092BE031092BF031092C0031092F9
:10215000C103D2C08091B0019091B101A091B201B0
:10216000B091B301BC01CD010E943B14DC01CB0155
:1021700024E630E040E050E0BC01CD010E94C519EA
:10218000DA01C90189839A83AB83BC832091BE03A2
:102190003091BF034091C0035091C1038091C203AD
:1021A0009091C303A091C403B091C50379018A0142
:1021B000E81AF90A0A0B1B0BD801C7018D839E830D
:1021C000AF83B8879091B50181E0913009F080E04C
:1021D000882301F12091DA033091DB03C901880FD4
:1021E000991F820F931F7C0100E010E02D813E813A
:1021F0004F81588589819A81AB81BC81BC01CD0119
:102200000E94B519DC01CB01A8019701BC01CD01E9
:102210000E9470129091B50181E0992309F080E04D
:10222000882339F12091DA033091DB03C901880F4B
:10223000991F820F931F7C0100E010E02D813E81E9
:102240004F81588589819A81AB81BC81BC01CD01C8
:102250000E94B519DC01CB01B095A09590958195B0
:102260009F4FAF4FBF4FA8019701BC01CD010E9406
:1022700070128091A8019091A901A091AA01B0913A
:10228000AB01BC01CD010E943B146B017C0180912C
:10229000AC019091AD01A091AE01B091AF01BC0134
:1022A000CD010E943B14DC01CB018C0D9D1DAE1DA8
:1022B000BF1D2091CE033091CF034091D0035091A8
:1022C000D10361E0281739074A075B0708F460E08B
:1022D000662311F01092B5018091BE039091BF0367
:1022E000A091C003B091C1038093C2039093C30334
:1022F000A093C403B093C5030E943219DC01CB0143
:102300008093B6039093B703A093B803B093B90337
:102310009091B40181E0992309F080E0882311F0C5
:102320000E94AC128091DC038823E9F40E943219E8
:102330007B018C018091A4019091A5019C01990FD2
:10234000440B550B8091BA039091BB03A091BC0341
:10235000B091BD03820F931FA41FB51F8E159F055B
:10236000A007B10710F481E001C080E0882309F4E0
:1023700057C00E9432199B01AC018091BA03909121
:10238000BB03A091BC03B091BD0379018A01E81A97
:10239000F90A0A0B1B0BD801C70189879A87AB87FB
:1023A000BC87F8942091AE033091AF034091B00305
:1023B0005091B10380E69AEEDC010E94061ADC011E
:1023C000CB0129853A854B855C85BC01CD010E94F6
:1023D000C519DA01C90124E630E040E050E0BC0153
:1023E000CD010E94C519DA01C9019093DB038093E6
:1023F000DA031092AE031092AF031092B003109262
:10240000B1031092DC0378940E943219DC01CB01F5
:102410008093BA039093BB03A093BC03B093BD0316
:1024200000002C960FB6F894DEBF0FBECDBFDF9133
:10243000CF911F910F91FF90EF90DF90CF90089573
:10244000CF93DF93CDB7DEB789E290E0FC018081C6
:10245000882F90E088709927892B19F489E090E003
:1024600002C088E090E02BE230E04BE250E0FA015D
:1024700040818427F90180830000DF91CF91089586
:10248000CF93DF93CDB7DEB728970FB6F894DEBFB2
:102490000FBECDBF69837A838B839C832D833E835C
:1024A0004F8358878D819E81AF81B885BC01CD0156
:1024B0000E94961489819A81AB81BC818093D2035A
:1024C0009093D303A093D403B093D5030000289630
:1024D0000FB6F894DEBF0FBECDBFDF91CF91089548
:1024E000CF93DF93CDB7DEB728970FB6F894DEBF52
:1024F0000FBECDBF69837A838B839C832D833E83FC
:102500004F8358878D819E81AF81B885BC01CD01F5
:102510000E9496142091D2033091D3034091D403AA
:102520005091D50389819A81AB81BC81820F931F21
:10253000A41FB51F8093D2039093D303A093D40319
:10254000B093D503000028960FB6F894DEBF0FBEF7
:10255000CDBFDF91CF910895CF93DF93CDB7DEB795
:102560001092D2031092D3031092D4031092D50389
:102570009091AD0381E08927882391F189E290E071
:10258000FC018081882F90E08072992721E0892BBF
:1025900009F420E02093AD032091CE033091CF03C6
:1025A0004091D0035091D1038091D2039091D303F5
:1025B000A091D403B091D50361E0281739074A07E9
:1025C0005B0709F060E0662399F228E532E040E01D
:1025D00050E06CE97FEF8FEF9FEF0E947012C8CF41
:1025E00028E532E040E050E068E17CEF8FEF9FEFBC
:1025F0000E9470122091CE033091CF034091D003FE
:102600005091D1038091D2039091D303A091D40330
:10261000B091D50361E0281739074A075B0709F431
:1026200060E0662309F0E6CF8091AD03882391F145
:1026300089E290E0FC018081882F90E080729927E8
:1026400021E0892B09F420E02093AD032091CE03F3
:102650003091CF034091D0035091D1038091D203A8
:102660009091D303A091D403B091D50361E02817D2
:1026700039074A075B0709F060E06623A9F228E5FD
:1026800032E040E050E064E670E080E090E00E94DC
:102690007012CACF28E532E040E050E068E873E10C
:1026A00080E090E00E9470122091CE033091CF0321
:1026B0004091D0035091D1038091D2039091D303E4
:1026C000A091D403B091D50361E0281739074A07D8
:1026D0005B0709F460E0662309F0E6CF9091AD0353
:1026E00081E08927882391F189E290E0FC018081D3
:1026F000882F90E08072992721E0892B09F420E04F
:102700002093AD032091CE033091CF034091D003AD
:102710005091D1038091D2039091D303A091D4031F
:10272000B091D50361E0281739074A075B0709F024
:1027300060E0662399F226E930E040E050E06CE981
:102740007FEF8FEF9FEF0E947012C8CF26E930E035
:1027500040E050E068E17CEF8FEF9FEF0E94701245
:102760002091CE033091CF034091D0035091D103FB
:102770008091D2039091D303A091D403B091D5035B
:1027800061E0281739074A075B0709F460E0662310
:1027900009F0E6CF8091AD03882391F189E290E0C2
:1027A000FC018081882F90E08072992721E0892B9D
:1027B00009F420E02093AD032091CE033091CF03A4
:1027C0004091D0035091D1038091D2039091D303D3
:1027D000A091D403B091D50361E0281739074A07C7
:1027E0005B0709F060E06623A9F226E930E040E0EB
:1027F00050E064E670E080E090E00E947012CACF82
:1028000026E930E040E050E068EE73E080E090E0E0
:102810000E9470122091CE033091CF034091D003DB
:102820005091D1038091D2039091D303A091D4030E
:10283000B091D50361E0281739074A075B0709F40F
:1028400060E0662309F0E6CF1092CE031092CF032A
:102850001092D0031092D1031092D2031092D3039E
:102860001092D4031092D50381E08093B40100004C
:10287000DF91CF910895CF93DF93CDB7DEB728973F
:102880000FB6F894DEBF0FBECDBF6D837E838F83FE
:1028900098872D813E814F81588588EE93E0DC0139
:1028A0000E94061ADC01CB0124E336E040E050E050
:1028B000BC01CD010E94C519DA01C90189839A833F
:1028C000AB83BC8329813A814B815C8180E89CE0A9
:1028D000DC010E94061ADC01CB0128EE33E040E067
:1028E00050E0BC01CD010E94C519DA01C9018983FC
:1028F0009A83AB83BC8389819A81AB81BC81880F29
:10290000991FAA1FBB1F89839A83AB83BC838981CC
:102910009A81AB81BC81BC01CD0128960FB6F89499
:10292000DEBF0FBECDBFDF91CF910895CF93DF9370
:10293000CDB7DEB728970FB6F894DEBF0FBECDBF78
:102940006D837E838F8398872D813E814F8158854B
:1029500080E89CE0DC010E94061ADC01CB012CE33C
:1029600030E040E050E0BC01CD010E94E719DA01FF
:10297000C90189839A83AB83BC8389819A81AB81A6
:10298000BC81880F991FAA1FBB1F89839A83AB83C1
:10299000BC8380E094E2A4EFB0E029813A814B81CE
:1029A0005C81BC01CD010E94C519DA01C901019702
:1029B000A109B1098093A0019093A101A093A20164
:1029C000B093A301000028960FB6F894DEBF0FBEA7
:1029D000CDBFDF91CF910895CF93DF9300D000D08A
:1029E000CDB7DEB79A8389837C836B8389819A8193
:1029F0000197C1F58B819C810196A1F58091A6017B
:102A00009091A701092E000CAA0BBB0B8093B60373
:102A10009093B703A093B803B093B9038091A40136
:102A20009091A501092E000CAA0BBB0B8093BA0351
:102A30009093BB03A093BC03B093BD030E943219D3
:102A4000DC01CB018093CA039093CB03A093CC030A
:102A5000B093CD038DED93E00E944D068EED93E093
:102A60000E94CB0089819A81892B61F48B819C81A2
:102A7000019641F48EED93E00E94D8008DED93E035
:102A80000E945A0600000F900F900F900F90DF9158
:102A9000CF910895CF93DF93CDB7DEB76FEF7FEF80
:102AA00081E090E00E94EC14DF91CF910895CF93E4
:102AB000DF93CDB7DEB76FEF7FEF80E090E00E944D
:102AC000EC14DF91CF910895CF93DF9300D0CDB771
:102AD000DEB79A83898300000F900F90DF91CF912A
:102AE0000895CF93DF93CDB7DEB780E890E0FC0187
:102AF000108288E890E0FC011182108281E890E069
:102B000021E0FC0120838FE690E02FE630E0F90120
:102B100020812160FC0120830000DF91CF91089586
:102B2000CF93DF9300D0CDB7DEB79A8389830000BF
:102B30000F900F90DF91CF910895FC01918D228D20
:102B4000892F90E0805C9F4F821B91098F7399279A
:102B50000895FC01918D828D981731F0828DE80FD8
:102B6000F11D858D90E008958FEF9FEF0895FC0192
:102B7000918D828D981761F0828DDF01A80FB11DB4
:102B80005D968C91928D9F5F9F73928F90E00895D8
:102B90008FEF9FEF0895FC01538D448D252F30E07A
:102BA000842F90E0821B930B541710F0CF9608955A
:102BB0000197089586E397E1892B49F080E090E042
:102BC000892B29F00E94361781110C94000008957A
:102BD000FC01848DDF01A80FB11DA35ABF4F2C91BA
:102BE000848D90E001968F739927848FA689B78989
:102BF0002C93A089B1898C91837080648C93938D80
:102C0000848D981306C00288F389E02D80818F7D22
:102C100080830895EF92FF920F931F93CF93DF93DA
:102C2000EC0181E0888F9B8D8C8D981305C0E8891D
:102C3000F989808185FD26C0F62E0B8D10E00F5F8F
:102C40001F4F0F731127E02E8C8DE8120CC00FB6AA
:102C500007FCFACFE889F989808185FFF5CFCE019D
:102C60000E94E815F1CF8B8DFE01E80FF11DE35AAC
:102C7000FF4FF0829FB7F8940B8FEA89FB89808120
:102C800080620AC09FB7F894EE89FF896083E88963
:102C9000F98980818370806480839FBF81E090E0A8
:102CA000DF91CF911F910F91FF90EF900895CF93F7
:102CB000DF93EC01888D8823C9F0EA89FB89808144
:102CC00085FD05C0A889B9898C9186FD0FC00FB616
:102CD00007FCF5CF808185FFF2CFA889B9898C9157
:102CE00085FFEDCFCE010E94E815E7CFDF91CF91B0
:102CF0000895CF92DF92EF92FF921F93CF93DF93CD
:102D0000EC016A017B01122FE889F98982E0808356
:102D10004115514E61057105B1F060E079E08DE338
:102D200090E0A70196010E94C519DA01C901019737
:102D3000A109B109B695A795979587959C0121158D
:102D400080E13807A8F0E889F989108260E874E822
:102D50008EE190E0A70196010E94C519DA01C90130
:102D60000197A109B109B695A795979587959C01FB
:102D7000EC85FD853083EE85FF852083188EEC89F8
:102D8000FD891083EA89FB89808180618083EA89DB
:102D9000FB89808188608083EA89FB8980818068E3
:102DA0008083EA89FB8980818F7D8083DF91CF9149
:102DB0001F91FF90EF90DF90CF9008951F920F9298
:102DC0000FB60F9211242F938F939F93EF93FF933E
:102DD000E091EF03F091F0038081E091F503F09131
:102DE000F60382FD12C090818091F8038F5F8F738C
:102DF0002091F903821751F0E091F803F0E0E152DD
:102E0000FC4F958F8093F80301C08081FF91EF9173
:102E10009F918F912F910F900FBE0F901F9018953B
:102E20001F920F920FB60F9211242F933F934F933F
:102E30005F936F937F938F939F93AF93BF93EF9322
:102E4000FF938FED93E00E94E815FF91EF91BF9102
:102E5000AF919F918F917F916F915F914F913F9132
:102E60002F910F900FBE0F901F9018958FED93E04C
:102E70000E949D1521E0892B09F420E0822F0895FE
:102E8000EFEDF3E01382128288EE93E0A0E0B0E071
:102E900084839583A683B78382E593E091838083BF
:102EA00085EC90E09587848784EC90E0978786870F
:102EB00080EC90E0918B808B81EC90E0938B828B07
:102EC00082EC90E0958B848B86EC90E0978B868BE0
:102ED000118E128E138E148E089508950E943E193D
:102EE0000E946D170E941A0FCAEDD5E10E94670F6C
:102EF0002097E1F30E94DA15F9CFCF92DF92EF929B
:102F0000FF920F931F93CF93DF936C017A018B0194
:102F1000C0E0D0E0CE15DF0581F0D8016D918D01C4
:102F2000D601ED91FC910190F081E02DC60109954B
:102F3000892B11F02196EECF7E01C701DF91CF9151
:102F40001F910F91FF90EF90DF90CF900895611542
:102F5000710579F0FB0101900020E9F73197AF018D
:102F6000461B570BDC01ED91FC910280F381E02DB3
:102F7000099480E090E008950C94A717DC01ED918E
:102F8000FC910190F081E02D099460E673E00C94CF
:102F9000A7170F931F93CF93DF93EC010E94A717FE
:102FA0008C01CE010E94C517800F911FDF91CF9138
:102FB0001F910F9108958F929F92AF92BF92EF92BF
:102FC000FF920F931F93CF93DF93CDB7DEB7A197F7
:102FD0000FB6F894DEBF0FBECDBF7C01FA01CB0166
:102FE00019A2223008F42AE08E010F5D1F4F822EB5
:102FF000912CA12CB12CBF01A50194010E94C519EF
:10300000F901CA01015011096A3010F4605D01C074
:10301000695CD8016C93232B242B252B61F7B80115
:10302000C7010E94A717A1960FB6F894DEBF0FBE86
:10303000CDBFDF91CF911F910F91FF90EF90BF9087
:10304000AF909F908F900895CF92DF92EF92FF9272
:103050000F931F93CF93DF932115310581F4DC018A
:10306000ED91FC910190F081E02D642FDF91CF91E3
:103070001F910F91FF90EF90DF90CF9009942A302D
:10308000310501F577FF1DC06A017B01EC016DE29E
:103090000E94BE178C0144275527BA014C195D09BF
:1030A0006E097F092AE0CE010E94DB17800F911F75
:1030B000DF91CF911F910F91FF90EF90DF90CF9014
:1030C00008952AE0DF91CF911F910F91FF90EF902B
:1030D000DF90CF900C94DB170F931F93CF93DF9368
:1030E000EC010E9424188C01CE010E94C517800FAC
:1030F000911FDF91CF911F910F9108950F931F930F
:10310000CF93DF93EC010E943219688779878A8711
:103110009B87E881F9810284F385E02DCE01099532
:1031200097FF17C00E943219088519852A853B85AB
:10313000DC01CB01801B910BA20BB30B0C811D8119
:103140002E813F8180179107A207B30710F38FEFFD
:103150009FEFDF91CF911F910F910895FC01448360
:103160005583668377830895AF92BF92CF92DF92A3
:10317000EF92FF920F931F93CF93DF9321153105A9
:10318000C1F089015C016A01C0E0D0E0E62EF12CBB
:10319000C5010E947E1897FD0FC08E159F0561F036
:1031A000F60181936F0121960C171D0789F7C8015D
:1031B00004C080E090E001C0CE01DF91CF911F916B
:1031C0000F91FF90EF90DF90CF90BF90AF90089558
:1031D0001F920F920FB60F9211242F933F938F934C
:1031E0009F93AF93BF9380917D0490917E04A091B3
:1031F0007F04B091800430917C0423E0230F2D37AD
:1032000020F40196A11DB11D05C026E8230F0296EA
:10321000A11DB11D20937C0480937D0490937E04B6
:10322000A0937F04B09380048091810490918204E4
:10323000A0918304B09184040196A11DB11D8093D7
:10324000810490938204A0938304B0938404BF917B
:10325000AF919F918F913F912F910F900FBE0F9043
:103260001F9018952FB7F89460917D0470917E049B
:1032700080917F04909180042FBF0895789484B545
:10328000826084BD84B5816084BD85B5826085BD62
:1032900085B5816085BDEEE6F0E080818160808348
:1032A000E1E8F0E01082808182608083808181602B
:1032B0008083E0E8F0E0808181608083E1EBF0E0F2
:1032C000808184608083E0EBF0E080818160808396
:1032D000EAE7F0E08081846080838081826080837F
:1032E0008081816080838081806880831092C100AA
:1032F0000895CF93DF9390E0FC01E458FF4F2491B1
:10330000FC01E057FF4F8491882361F190E0880F22
:10331000991FFC01E854FF4FC591D491FC01E2557F
:10332000FF4FA591B491611109C09FB7F8948881AE
:10333000209582238883EC912E230BC0623061F4A8
:103340009FB7F8948881322F309583238883EC913E
:103350002E2B2C939FBF06C08FB7F894E8812E2B9D
:1033600028838FBFDF91CF910895DB018F939F93C7
:103370000E94061ABF91AF91A29F800D911DA39F3D
:10338000900DB29F900D11240895A1E21A2EAA1B50
:10339000BB1BFD010DC0AA1FBB1FEE1FFF1FA21705
:1033A000B307E407F50720F0A21BB30BE40BF50B02
:1033B000661F771F881F991F1A9469F7609570958B
:1033C000809590959B01AC01BD01CF010895052E1C
:1033D00097FB1EF400940E94FE1957FD07D00E942F
:1033E000C51907FC03D04EF40C94FE195095409576
:1033F000309521953F4F4F4F5F4F089590958095A1
:10340000709561957F4F8F4F9F4F08950E94171AB7
:10341000A59F900DB49F900DA49F800D911D112428
:103420000895EE0FFF1F0590F491E02D0994A29FDF
:10343000B001B39FC001A39F700D811D1124911D88
:10344000B29F700D811D1124911D0895A0E0B0E080
:10345000ECE2FAE10C94561E5C016B017A016115F5
:10346000710519F0FB0191838083E114F10429F0C7
:10347000C7010297839708F0E5C0E5012196F501A1
:103480001081812F90E00E945A1B892B11F05E0160
:10349000F4CF1D3229F42196F501118101E007C016
:1034A0001B3221F4E5012296F501118100E0E114BF
:1034B000F10409F1F0E1EF16F10429F43FC010E343
:1034C000E114F10421F128E0E216F10401F154F4D1
:1034D000E2E0EE16F10421F5812C912CA12CB0E450
:1034E000BB2E3EC0FAE0EF16F10439F020E1E216FF
:1034F000F104B1F430C0103319F1FAE0EF2EF12CE1
:10350000ACEC8A2E982CA82CACE0BA2E29C078E01E
:10351000E72EF12C812C912CA12CE0E1BE2E20C0B5
:1035200060E070E080E090E897010F2C000C440B05
:10353000550B0E94C51949015A0112C0103359F4A4
:1035400088818F7D883509F0BACF19812296026073
:1035500080E1E82EF12C812C912CA12C68E0B62E74
:1035600040E060E070E0CB0127010F2C000C660802
:103570007708FE0150ED352E310E29E0231570F449
:103580002FEB210F2A3118F439EC332E06C02FE926
:10359000210F2A3118F529EA322E310E232D30E081
:1035A0002E153F05DCF447FD16C086169706A806C3
:1035B000B90670F0A30192010E94B519630D711D47
:1035C000811D911D61307105810520E8920710F081
:1035D0004FEF01C041E021961081CBCF202F217009
:1035E000C114D10471F0442329F02197F601D1834D
:1035F000C08307C001FF19C02297F601D183C083A1
:1036000014C047FF12C0222329F060E070E080E080
:1036100090E804C06FEF7FEF8FEF9FE722E230E08A
:10362000309386042093850409C0222381F090956D
:103630008095709561957F4F8F4F9F4F462F372F05
:10364000282F12C040E030E020E090E00DC097FF4E
:10365000F5CF82E290E090938604809385046FEF2B
:103660007FEF8FEF9FE7EACF642F732F822FCDB7C5
:10367000DEB7E1E10C94721EFC0188279927E894DB
:1036800021912032E9F3293010F02E30C8F32B328B
:1036900041F02D3239F4689404C00E94971B820FC8
:1036A000911D219120532A30C0F31EF490958195ED
:1036B0009F4F089591110C94A21D803219F08950EA
:1036C0008550C8F708959111089581548A5108F4DE
:1036D000805E855A089540E753E00E94701B08956C
:1036E000FA01A191B081009719F41097E1F0CD0192
:1036F000DC01CD010D90002011F4C00113C0FB01CD
:103700002191222319F02015D9F7F3CFFB01219144
:10371000201519F41E92119606C02223C1F70D90B0
:103720000020A1F7D001FA01A193B08308957AE0B7
:10373000979F902D879F802D910D11240895AEE0C5
:10374000B0E0E5EAFBE10C94631E0D891E8986E07A
:103750008C831A8309838FEF9FE79E838D83AE014D
:10376000475E5F4F6F89788DCE0101960E94C11B25
:10377000EF81F885E00FF11F10822E96E4E00C94A3
:103780007F1EABE0B0E0E7ECFBE10C94551E6C0152
:103790007B018A01FC0117821682838181FFCCC1E3
:1037A000CE0101963C01F6019381F70193FD8591CD
:1037B00093FF81917F01882309F4BAC1853239F4DE
:1037C00093FD859193FF81917F01853229F4B601A4
:1037D00090E00E94BB1DE7CF912C212C312CFFE102
:1037E000F315D8F08B3279F038F4803279F08332E7
:1037F000A1F4232D20611DC08D3261F0803369F466
:10380000232D216016C0832D8260382EE32DE460C5
:103810003E2E2AC0F32DF8601DC037FC2DC020EDD0
:10382000280F2A3040F08E32B9F436FC81C1232DA6
:103830002064322E19C036FE06C08AE0989E200D04
:103840001124922E11C0EAE02E9E200D1124222E6A
:10385000F32DF0623F2E08C08C3621F4832D806852
:10386000382E02C0883641F4F70193FD859193FF0D
:1038700081917F018111B3CF982F9F7D9554933013
:1038800028F40C5F1F4F9FE399830DC0833631F0FE
:10389000833771F0833509F059C021C0F801808168
:1038A00089830E5F1F4F88248394912C530113C08A
:1038B0002801F2E04F0E511CF801A080B18036FEC5
:1038C00003C0692D70E002C06FEF7FEFC5010E9459
:1038D000B01D4C018201F32DFF773F2E16C0280149
:1038E00022E0420E511CF801A080B18036FE03C0D8
:1038F000692D70E002C06FEF7FEFC5010E94A51D2A
:103900004C01F32DF0683F2E820133FC1BC0822D49
:1039100090E088169906B0F4B60180E290E00E942B
:10392000BB1D2A94F4CFF50137FC859137FE8191B8
:103930005F01B60190E00E94BB1D21102A9421E096
:10394000821A91088114910471F7E8C0843611F04D
:10395000893641F5F80137FE07C0608171818281A7
:1039600093810C5F1F4F08C060817181072E000C8E
:10397000880B990B0E5F1F4FF32DFF763F2E97FF9D
:1039800009C090958095709561957F4F8F4F9F4F9F
:10399000F0683F2E2AE030E0A3010E94F71D882E38
:1039A000861845C0853731F4232D2F7EB22E2AE0AC
:1039B00030E025C0932D997FB92E8F36C1F018F4D1
:1039C000883579F0B5C0803719F0883721F0B0C05C
:1039D000E92FE061BE2EB4FE0DC0FB2DF460BF2EBA
:1039E00009C034FE0AC0292F2660B22E06C028E086
:1039F00030E005C020E130E002C020E132E0F80113
:103A0000B7FE07C060817181828193810C5F1F4F77
:103A100006C06081718180E090E00E5F1F4FA301BE
:103A20000E94F71D882E8618FB2DFF773F2E36FE4D
:103A30000DC0232D2E7FA22E891458F434FE0BC006
:103A400032FC09C0832D8E7EA82E05C0B82CA32C75
:103A500003C0B82C01C0B92CA4FE0FC0FE01E80DB4
:103A6000F11D8081803321F49A2D997EA92E09C001
:103A7000A2FE06C0B394B39404C08A2D867809F0E0
:103A8000B394A3FC11C0A0FE06C0B21488F4280CA5
:103A9000922C9B180EC0B21460F4B60180E290E044
:103AA0000E94BB1DB394F7CFB21418F42B1802C0B8
:103AB000982C212CA4FE10C0B60180E390E00E9457
:103AC000BB1DA2FE17C0A1FC03C088E790E002C0A6
:103AD00088E590E0B6010CC08A2D867859F0A1FEE9
:103AE00002C08BE201C080E2A7FC8DE2B60190E04B
:103AF0000E94BB1D891438F4B60180E390E00E9457
:103B0000BB1D9A94F7CF8A94F301E80DF11D8081D3
:103B1000B60190E00E94BB1D8110F5CF222009F470
:103B200042CEB60180E290E00E94BB1D2A94F6CFFF
:103B3000F6018681978102C08FEF9FEF2B96E2E11D
:103B40000C94711E992788270895FC0105906150F7
:103B500070400110D8F7809590958E0F9F1F0895A3
:103B6000FC016150704001900110D8F7809590954C
:103B70008E0F9F1F08950F931F93CF93DF93FB0129
:103B8000238121FD03C08FEF9FEF2CC022FF16C0C1
:103B900046815781248135814217530744F4A0811F
:103BA000B1819D012F5F3F4F318320838C9326810C
:103BB00037812F5F3F4F3783268314C08B01EC0181
:103BC000FB010084F185E02D0995892BE1F6D801F0
:103BD00016968D919C911797019617969C938E93AC
:103BE0001697CE01DF91CF911F910F910895FA01A1
:103BF000AA27283051F1203181F1E8946F936E7F2C
:103C00006E5F7F4F8F4F9F4FAF4FB1E03ED0B4E01C
:103C10003CD0670F781F891F9A1FA11D680F791F5D
:103C20008A1F911DA11D6A0F711D811D911DA11D6E
:103C300020D009F468943F912AE0269F112430197E
:103C4000305D3193DEF6CF010895462F4770405D19
:103C50004193B3E00FD0C9F7F6CF462F4F70405DC8
:103C60004A3318F0495D31FD4052419302D0A9F723
:103C7000EACFB4E0A6959795879577956795BA951D
:103C8000C9F700976105710508959B01AC010A2EE3
:103C900006945795479537952795BA95C9F7620FBA
:103CA000731F841F951FA01D08952F923F924F925E
:103CB0005F926F927F928F929F92AF92BF92CF92BC
:103CC000DF92EF92FF920F931F93CF93DF93CDB7C5
:103CD000DEB7CA1BDB0B0FB6F894DEBF0FBECDBF3D
:103CE00009942A88398848885F846E847D848C840E
:103CF0009B84AA84B984C884DF80EE80FD800C8117
:103D00001B81AA81B981CE0FD11D0FB6F894DEBFF9
:103D10000FBECDBFED01089510E0C3E6D0E004C0B2
:103D2000FE010E94111A2196C436D107C9F7F894F2
:023D3000FFCFC3
:103D3200686F6D65006765745374657073007472A3
:103D420061766572736552504D0073746174757358
:103D52000073746F700072756E4D6F6465006D6FE5
:103D620076654162736F6C7574650073706F6F6C0A
:103D720052504D00696E6E65724F666673657400CF
:103D820073706F6F6C57696474680066696C616DFB
:103D9200656E744469616D65746572000001E500C9
:103DA200050104010E012B011A01E90121014C0256
:103DB200260166022E0102033B01C40344010604EC
:103DC2005001A6045B014605B6010000050004008F
:103DD20088130000D00732006400000060EA00008F
:103DE200D6060000010100486F6D696E6720506CB5
:103DF2006561736520576169742E2E2E00496E76B7
:103E0200616C69642072706D2C206E756D626572D2
:103E1200206973206E6F7420612064696769740081
:103E22004D6F74696F6E20436F6E74726F6C6C6548
:103E3200723A200052756E6E696E6720696E205369
:103E4200656D69204175746F0052756E6E696E679B
:103E520020696E2046756C6C204175746F00527536
:103E62006E6E696E6720696E204D616E75616C00C1
:103E7200486F6D696E672E2E2E00506C616E6E65F6
:103E8200722053746F707065642E2E2E00496E7608
:103E9200616C69642072756E206D6F64652C206E92
:103EA200756D626572206973206E6F742061206483
:103EB2006967697400496E76616C696420706F731A
:103EC2006974696F6E2C206E756D626572206973FC
:103ED200206E6F74206120646967697400496E7690
:103EE200616C6964206F66667365742C206E756DF3
:103EF200626572206973206E6F7420612064696745
:103F0200697400496E76616C6964207769647468CB
:103F12002C206E756D626572206973206E6F74203D
:103F2200612064696769740025640025643B257318
:103F32003B25730025643B25733B2564003B004908
:103F42006E76616C69642048617264776172652083
:103F520049442C206E756D626572206973206E6F04
:103F620074206120646967697400496E76616C69C6
:103F720064204861726477617265204944000000E0
:103F820000000A167D17CB1557169D15B715A915F2
:103F92000D0A006E616E00696E66006F7666000043
:00000001FF
