S010000074726176657273652E73726563A8
S11300000C9464000C94D20B0C94030C0C94340CDC
S11300100C94E10C0C948E0D0C948C000C948C00BC
S11300200C948C000C948C000C948C000C94450F54
S11300300C948C000C94510E0C948C000C948C0039
S11300400C942B1D0C948C000C94211B0C94531BAE
S11300500C948C000C948C000C948C000C948C00EC
S11300600C948C000C948C00000102030405060718
S1130070000102030405000102030405010204084F
S113008010204080010204081020010204081020FE
S1130090040404040404040402020202020203032A
S11300A003030303000000002300260029000000CE
S11300B00000250028002B00000000002400270079
S11300C02A005C18831B691811241FBECFEFD8E0E7
S11300D0DEBFCDBF13E0A0E0B1E0E8EBF5E402C081
S11300E005900D92A43AB107D9F724E0A4EAB3E04D
S11300F001C01D92A03CB207E1F710E0C3E6D0E0D6
S113010004C02197FE010E94541EC136D107C9F7CD
S11301100E94B11B0C94CF220C940000CF93DF9368
S113012000D0CDB7DEB79A83898300000F900F907B
S1130130DF91CF910895CF93DF93CDB7DEB78AE7F0
S113014090E02AE730E0F90120812460FC0120835B
S11301508AE790E02AE730E0F90120812D7FFC0155
S113016020838AE790E02AE730E0F90120812E7F9E
S1130170FC0120830000DF91CF910895CF93DF939A
S113018000D0CDB7DEB79A83898300000F900F901B
S1130190DF91CF910895CF93DF9300D0CDB7DEB731
S11301A09A83898300000F900F90DF91CF91089577
S11301B0CF93DF9300D0CDB7DEB79A838983000055
S11301C00F900F90DF91CF910895CF93DF9300D0DC
S11301D000D000D0CDB7DEB79A8389837C836B834C
S11301E05E834D836BEE71E088E194E00E940C1C09
S11301F01092E801000026960FB6F894DEBF0FBEF9
S1130200CDBFDF91CF910895CF93DF9300D000D07D
S113021000D0CDB7DEB79A8389837C836B835E83FA
S11302204D838091020490910304A0910404B09141
S113023005042AE030E0AC01BD0188E194E00E94AD
S1130240AF1C000026960FB6F894DEBF0FBECDBFDC
S1130250DF91CF9108950F931F93CF93DF93CDB781
S1130260DEB7C854D1090FB6F894DEBF0FBECDBFB8
S11302709E012D5B3F4FF90191838083CE018B5BFF
S11302809F4FFC0171836083CE01895B9F4FFC010A
S113029051834083CE01895B9F4FFC018081918112
S11302A0892B09F46AC01A82198289819A819E0174
S11302B0295B3F4FF90120813181820F931FFC019B
S11302C08081882329F189819A819E01295B3F4F8E
S11302D0F90120813181820F931FFC018081882FD5
S11302E090E0C0970A9710F081E001C080E0882375
S11302F049F061E072E088E194E00E940C1C80E027
S113030090E061C089819A8101969A838983CDCFD7
S1130310CE01895B9F4FFC01808191814AE050E0CE
S113032060E070E00E94691EDC01CB018B839C833A
S1130330AD83BE838B819C81AD81BE818935924022
S1130340A105B10568F48B819C81AD81BE81809348
S11303500A0490930B04A0930C04B0930D0433C0CF
S113036088E592E0A0E0B0E080930A0490930B0447
S1130370A0930C04B0930D0426C02CE3CE01079681
S1130380FC01322F11923A95E9F780910A04909179
S11303900B04A0910C04B0910D049E012B5B3F4F04
S11303A0F90140815181FE0137968C019D0163E082
S11303B070E0CF010E94AC07CE010796BC0188E132
S11303C094E00E940C1CC85BDF4F0FB6F894DEBFAC
S11303D00FBECDBFDF91CF911F910F910895CF93A1
S11303E0DF9300D000D000D0CDB7DEB79A838983E5
S11303F07C836B835E834D8364E272E088E194E0E6
S11304000E94FF1B9091E80181E0933009F080E0A5
S1130410882331F068E372E088E194E00E940C1CC8
S11304209091E80181E0943009F080E0882331F074
S11304306DE472E088E194E00E940C1C9091E80164
S113044081E0923009F080E0882331F062E672E0C6
S113045088E194E00E940C1C9091E80181E09923CA
S113046009F080E0882331F064E772E088E194E0E9
S11304700E940C1C9091E80181E0913009F080E029
S1130480882331F06EE772E088E194E00E940C1C4E
S1130490000026960FB6F894DEBF0FBECDBFDF91E5
S11304A0CF910895CF93DF9300D000D000D0CDB783
S11304B0DEB79A8389837C836B835E834D8381E07B
S11304C08093E801000026960FB6F894DEBF0FBEB5
S11304D0CDBFDF91CF9108950F931F93CF93DF93F7
S11304E0CDB7DEB7C654D1090FB6F894DEBF0FBE40
S11304F0CDBF9E012F5B3F4FF90191838083CE01D5
S11305008D5B9F4FFC0171836083CE018B5B9F4F9A
S1130510FC0151834083CE018B5B9F4FFC018081A2
S11305209181892B09F44DC01A82198289819A819B
S11305309E012B5B3F4FF90120813181820F931F74
S1130540FC018081882329F189819A819E012B5B9A
S11305503F4FF90120813181820F931FFC0180817B
S1130560882F90E0C0970A9710F081E001C080E0E6
S1130570882349F061E972E088E194E00E940C1C50
S113058080E090E042C089819A8101969A838983B0
S1130590CDCFCE018B5B9F4FFC01808191814AE0DE
S11305A050E060E070E00E94691EDC01CB019C8396
S11305B08B838B819C81059740F58B818093E80127
S11305C024C02CE3CE010596FC01322F11923A95FA
S11305D0E9F78091E801882F90E0A0E0B0E09E0167
S11305E02D5B3F4FF90140815181FE0135968C010D
S11305F09D0163E070E0CF010E94AC07CE01059637
S1130600BC0188E194E00E940C1CCA5BDF4F0FB66A
S1130610F894DEBF0FBECDBFDF91CF911F910F9134
S11306200895CF93DF93CDB7DEB72C970FB6F89428
S1130630DEBF0FBECDBF98878F837A8769875C87BB
S11306404B878B859C85892B09F4A4C01A82198257
S113065089819A812B853C85820F931FFC018081BF
S1130660882309F189819A812B853C85820F931F08
S1130670FC018081882F90E0C0970A9710F081E0F8
S113068001C080E0882349F069EB72E088E194E0DE
S11306900E940C1C80E090E07DC089819A810196C3
S11306A09A838983D5CF8B859C854AE050E060E0AE
S11306B070E00E94691EDC01CB018B839C83AD83B7
S11306C0BE832B813C814D815E8188EE93E0DC0109
S11306D00E94491EDC01CB0124E336E040E050E0F7
S11306E0BC01CD010E942A1EDA01C9018B839C83BF
S11306F0AD83BE838B819C81AD81BE81BB23ACF075
S11307008B819C81AD81BE81863C9242A140B10522
S113071064F48B819C81AD81BE81809306049093A7
S11307200704A0930804B0930904209106043091AF
S11307300704409108045091090480E89CE0DC011E
S11307400E94491EDC01CB0128EE33E040E050E07A
S1130750BC01CD010E942A1EDA01C901809306045E
S113076090930704A0930804B093090480910604AD
S113077090910704A0910804B0910904880F991F6F
S1130780AA1FBB1F8093060490930704A093080438
S1130790B09309042C960FB6F894DEBF0FBECDBFFC
S11307A0DF91CF9108950F931F93CF93DF93CDB72C
S11307B0DEB7C254D1090FB6F894DEBF0FBECDBF69
S11307C09EAF8DAFCE01CF96FC0171836083CE01C5
S11307D08F5B9F4FFC01518340832CE3CE01019634
S11307E0FC01322F11923A95E9F780910E04909111
S11307F00F04CC01A0E0B0E09E01215C3F4FF90161
S1130800408151818C019D0163E070E0CE0101962D
S11308100E94AC07CE010196BC0188E194E00E94DD
S11308200C1C0000CE5BDF4F0FB6F894DEBF0FBE8A
S1130830CDBFDF91CF911F910F9108950F931F9317
S1130840CF93DF93CDB7DEB7C454D1090FB6F89474
S1130850DEBF0FBECDBF9E01215C3F4FF9019183E6
S11308608083CE018F5B9F4FFC0171836083CE0137
S11308708D5B9F4FFC0151834083CE018D5B9F4F65
S1130880FC0180819181892B09F44CC01A82198260
S113089089819A819E012D5B3F4FF901208131812D
S11308A0820F931FFC018081882329F189819A8119
S11308B09E012D5B3F4FF90120813181820F931FEF
S11308C0FC018081882F90E0C0970A9710F081E0A6
S11308D001C080E0882349F061EE72E088E194E091
S11308E00E940C1C80E090E043C089819A810196AB
S11308F09A838983CDCFCE018D5B9F4FFC0180818C
S113090091814AE050E060E070E00E94691EDC01E1
S1130910CB018093DC019093DD01A093DE01B093C1
S1130920DF0126C02CE3CE010396FC01322F119285
S11309303A95E9F78091DC019091DD01A091DE0107
S1130940B091DF019E012F5B3F4FF901408151813E
S1130950FE0133968C019D0163E070E0CF010E949B
S1130960AC07CE010396BC0188E194E00E940C1C04
S1130970CC5BDF4F0FB6F894DEBF0FBECDBFDF9167
S1130980CF911F910F9108950F931F93CF93DF93EE
S1130990CDB7DEB7C454D1090FB6F894DEBF0FBE8D
S11309A0CDBF9E01215C3F4FF90191838083CE012D
S11309B08F5B9F4FFC0171836083CE018D5B9F4FE2
S11309C0FC0151834083CE018D5B9F4FFC018081EC
S11309D09181892B09F44CC01A82198289819A81E8
S11309E09E012D5B3F4FF90120813181820F931FBE
S11309F0FC018081882329F189819A819E012D5BE4
S1130A003F4FF90120813181820F931FFC018081C6
S1130A10882F90E0C0970A9710F081E001C080E031
S1130A20882349F067E073E088E194E00E940C1C9D
S1130A3080E090E043C089819A8101969A838983FA
S1130A40CDCFCE018D5B9F4FFC01808191814AE027
S1130A5050E060E070E00E94691EDC01CB018093ED
S1130A60E0019093E101A093E201B093E30126C079
S1130A702CE3CE010396FC01322F11923A95E9F74B
S1130A808091E0019091E101A091E201B091E30134
S1130A909E012F5B3F4FF90140815181FE01339646
S1130AA08C019D0163E070E0CF010E94AC07CE0190
S1130AB00396BC0188E194E00E940C1CCC5BDF4FE0
S1130AC00FB6F894DEBF0FBECDBFDF91CF911F915B
S1130AD00F9108950F931F93CF93DF93CDB7DEB794
S1130AE0C454D1090FB6F894DEBF0FBECDBF9E012A
S1130AF0215C3F4FF90191838083CE018F5B9F4F2F
S1130B00FC0171836083CE018D5B9F4FFC01518397
S1130B104083CE018D5B9F4FFC0180819181892BA5
S1130B2009F44CC01A82198289819A819E012D5B35
S1130B303F4FF90120813181820F931FFC01808195
S1130B40882329F189819A819E012D5B3F4FF90108
S1130B5020813181820F931FFC018081882F90E0D6
S1130B60C0970A9710F081E001C080E0882349F023
S1130B7067E073E088E194E00E940C1C80E090E060
S1130B8043C089819A8101969A838983CDCFCE010E
S1130B908D5B9F4FFC01808191814AE050E060E0D1
S1130BA070E00E94691EDC01CB018093E401909304
S1130BB0E501A093E601B093E70126C02CE3CE0142
S1130BC00396FC01322F11923A95E9F78091E401E2
S1130BD09091E501A091E601B091E7019E012F5BA0
S1130BE03F4FF90140815181FE0133968C019D01F3
S1130BF063E070E0CF010E94AC07CE010396BC0114
S1130C0088E194E00E940C1CCC5BDF4F0FB6F89493
S1130C10DEBF0FBECDBFDF91CF911F910F9108951D
S1130C20CF93DF9300D000D000D0CDB7DEB79A8346
S1130C3089837C836B835E834D838091E801843058
S1130C4021F08091E801833011F481E001C080E05B
S1130C50882319F081E080931104000026960FB6D2
S1130C60F894DEBF0FBECDBFDF91CF9108950F93EF
S1130C701F93CF93DF93CDB7DEB7C654D1090FB618
S1130C80F894DEBF0FBECDBF9E012F5B3F4FF9012D
S1130C9091838083CE018D5B9F4FFC0171836083C0
S1130CA0CE018B5B9F4FFC0151834083CE018B5B54
S1130CB09F4FFC0180819181892B09F44DC01A82D8
S1130CC0198289819A819E012B5B3F4FF901208112
S1130CD03181820F931FFC018081882329F189814E
S1130CE09A819E012B5B3F4FF90120813181820F54
S1130CF0931FFC018081882F90E0C0970A9710F021
S1130D0081E001C080E0882349F061E972E088E174
S1130D1094E00E940C1C80E090E042C089819A819A
S1130D2001969A838983CDCFCE018B5B9F4FFC01C3
S1130D30808191814AE050E060E070E00E94691E89
S1130D40DC01CB019C838B838B819C81049740F5D0
S1130D508B818093100424C02CE3CE010596FC0102
S1130D60322F11923A95E9F780911004882F90E080
S1130D70A0E0B0E09E012D5B3F4FF901408151811D
S1130D80FE0135968C019D0163E070E0CF010E9465
S1130D90AC07CE010596BC0188E194E00E940C1CCE
S1130DA0CA5BDF4F0FB6F894DEBF0FBECDBFDF9135
S1130DB0CF911F910F9108950F931F93CF93DF93BA
S1130DC0CDB7DEB7C654D1090FB6F894DEBF0FBE57
S1130DD0CDBF9E012F5B3F4FF90191838083CE01EC
S1130DE08D5B9F4FFC0171836083CE018B5B9F4FB2
S1130DF0FC0151834083CE018B5B9F4FFC018081BA
S1130E009181892B09F44EC01A82198289819A81B1
S1130E109E012B5B3F4FF90120813181820F931F8B
S1130E20FC018081882329F189819A819E012B5BB1
S1130E303F4FF90120813181820F931FFC01808192
S1130E40882F90E0C0970A9710F081E001C080E0FD
S1130E50882349F061E972E088E194E00E940C1C67
S1130E6080E090E043C089819A8101969A838983C6
S1130E70CDCFCE018B5B9F4FFC01808191814AE0F5
S1130E8050E060E070E00E94691EDC01CB019C83AD
S1130E908B8321E08B819C81019709F020E02093D2
S1130EA0120424C02CE3CE010596FC01322F1192CA
S1130EB03A95E9F780911204882F90E0A0E0B0E021
S1130EC09E012D5B3F4FF90140815181FE01359612
S1130ED08C019D0163E070E0CF010E94AC07CE015C
S1130EE00596BC0188E194E00E940C1CCA5BDF4FAC
S1130EF00FB6F894DEBF0FBECDBFDF91CF911F9127
S1130F000F910895CF93DF93CDB7DEB7C258D109BF
S1130F100FB6F894DEBF0FBECDBF9E012F573F4FD3
S1130F20F90191838083CE0101960E940D0864E942
S1130F3071E0CE0101960E943408CE0101960E9410
S1130F40CE090000CE57DF4F0FB6F894DEBF0FBEB8
S1130F50CDBFDF91CF9108950F931F93CF93DF936C
S1130F60CDB7DEB72A970FB6F894DEBF0FBECDBF5C
S1130F709A8389837C836B835E834D830F83188775
S1130F8029873A878A858F9389858F9388858F935C
S1130F908F818F938E818F938D818F938C818F938B
S1130FA08B818F9388E393E0892F8F9388E393E079
S1130FB08F938A818F9389818F930E94E21F8DB7CB
S1130FC09EB70C960FB6F894DEBF0FBECDBF0000DF
S1130FD02A960FB6F894DEBF0FBECDBFDF91CF9136
S1130FE01F910F910895CF93DF9300D0CDB7DEB753
S1130FF09A83898300000F900F90DF91CF91089519
S1131000CF93DF9300D0CDB7DEB79A8389830000F6
S11310100F900F90DF91CF910895CF93DF9300D07D
S1131020CDB7DEB79A83898389819A81FC011082C6
S113103089819A81FC01118289819A812CE302962B
S1131040FC01322F11923A95E9F789819A812CE3B8
S1131050CE96FC01322F11923A95E9F700000F90D9
S11310600F90DF91CF910895CF93DF9300D000D0FC
S1131070CDB7DEB79A8389837C836B8388E194E060
S11310800E94E01921E0181619060CF020E0222332
S113109019F189819A8102962CE330E0AC016AE06F
S11310A088E194E00E94F71C282F89819A81FC0131
S11310B0208389819A81FC018081882F90E0298195
S11310C03A81820F931F0296FC01108289819A81D2
S11310D00296892B09F103C080E090E01FC089814A
S11310E09A81AC014E5F5F4F2B813C8189819A814B
S11310F0B9010E94950889819A81FC011082898135
S11311009A81FC018081882F90E029813A81820FA5
S1131110931F0296FC01108280E090E00F900F90E4
S11311200F900F90DF91CF910895CF93DF93CDB7B8
S1131130DEB72E970FB6F894DEBF0FBECDBF9A87E9
S113114089877C876B875E874D878D859E8562E462
S113115073E00E94AE1F9C0189859A8586589F4F33
S1131160FC013183208362E473E080E090E00E941C
S1131170AE1F9C0189859A8584589F4FFC01318359
S1131180208362E473E080E090E00E94AE1F9C0143
S113119089859A8582589F4FFC01318320831A8266
S11311A0198289859A8586589F4FFC012081318157
S11311B089819A81820F931FFC018081882331F1F8
S11311C089859A8586589F4FFC01208131818981C8
S11311D09A81820F931FFC018081882F90E0C09731
S11311E00A9710F081E001C080E0882349F064E4AC
S11311F073E088E194E00E940C1C80E090E079C0E8
S113120089819A8101969A838983CBCF89859A852E
S113121086589F4FFC01808191810E947F1F039714
S113122049F06FE673E088E194E00E940C1C80E0D2
S113123090E05FC01C821B828B819C81880F991F68
S1131240880F991F2B853C85820F931FFC01808199
S11312509181A281B3818D839E83AF83B8878F816F
S11312609885892B09F443C04D815E8189859A85CF
S113127084589F4FFC012081318189859A85B90169
S11312800E94820921E0892B09F020E02223B1F099
S11312902F81388589859A8582589F4FFC0140812A
S11312A0518189859A8584589F4FFC018081918161
S11312B0BC0180E090E0F90109951BC08B819C8101
S11312C001969C838B838B819C81880F991F880F47
S11312D0991F2B853C85820F931FFC01808191818E
S11312E0A281B3818D839E83AF83B887B8CF81E019
S11312F090E02E960FB6F894DEBF0FBECDBFDF91FF
S1131300CF9108950F931F93CF93DF93CDB7DEB79B
S113131028970FB6F894DEBF0FBECDBF9C838B8396
S11313207E836D8358874F838D819E81FC018081EC
S1131330882F90E00E94A61F8C018F819885FC0164
S11313408081882F90E00E94A61F9801281B390BEA
S1131350C9019A83898389819A81892B31F48D818A
S11313609E81FC018081882319F489819A810BC0B4
S11313708D819E8101969E838D838F8198850196B0
S113138098878F83D1CF28960FB6F894DEBF0FBE0F
S1131390CDBFDF91CF911F910F910895CF93DF932C
S11313A000D0CDB7DEB79A83898300000F900F90E9
S11313B0DF91CF910895CF93DF9300D000D000D078
S11313C0CDB7DEB79A8389834B835C836D837E8339
S11313D08B819C81AD81BE81E981FA8126E0AC01DB
S11313E0BD01CF010E94BC1A000026960FB6F894E6
S11313F0DEBF0FBECDBFDF91CF910895CF93DF93B2
S1131400CDB7DEB7A0970FB6F894DEBF0FBECDBF41
S11314108D8F7F8F6E8F48A319821A828D8D8F775F
S11314208B838D8D882344F08B81823009F430C105
S11314308B81833009F42CC18B81882F90E08458F0
S11314409F4F9E838D838D819E81FC0184918F8328
S11314508F818A838B81882F90E080579F4F998753
S1131460888788859985FC0184918A878A85898300
S113147088A1833019F088A18130D9F48981823020
S113148031F49091D4038A81892B8093D403898188
S1131490833031F49091D7038A81892B8093D703C9
S11314A08981843031F49091DA038A81892B809385
S11314B0DA0388A1823019F088A18130D9F48981B6
S11314C0823031F49091D5038A81892B8093D5039E
S11314D08981833031F49091D8038A81892B809358
S11314E0D8038981843031F49091DB038A81892B7C
S11314F08093DB038B81882F90E088599F4F9C87D2
S11315008B878B859C85FC0184918D878D858E8747
S113151089818230C1F58E85882F90E0880F991FCC
S113152084559C4F988B8F878F8598892E8D3F8DFE
S1131530FC01318320838981882F90E0880F991FD3
S11315408C559F4F9A8B898B89899A89FC012591A7
S11315503491CF013C8B2B8B9A8B898B8B899C8903
S1131560FC0180818093D6038BE690E09093A703DF
S11315708093A60388E690E028E630E0F901208114
S11315802160FC01208389818330C1F58E85882FF9
S113159090E0880F991F88549C4F988B8F878F8574
S11315A098892E8D3F8DFC01318320838981882F7A
S11315B090E0880F991F8C559F4F9E8B8D8B8D8942
S11315C09E89FC0125913491CF01388F2F8B9E8BFE
S11315D08D8B8F89988DFC0180818093D9038CE653
S11315E090E09093A7038093A60388E690E028E612
S11315F030E0F90120812260FC012083898184305C
S1131600C1F58E85882F90E0880F991F8C539C4FCD
S1131610988B8F878F8598892E8D3F8DFC01318320
S113162020838981882F90E0880F991F8C559F4FC4
S11316309A8F898F898D9A8DFC0125913491CF01E0
S11316403C8F2B8F9A8F898F8B8D9C8DFC01808191
S11316508093DC038DE690E09093A7038093A60328
S113166088E690E028E630E0F90120812460FC015E
S113167020838091A6039091A7032091A603309123
S1131680A703F90130812A81232BFC01208380C028
S11316908FE590E0FC0180818C83F8948B8182300B
S11316A0A1F58E8D9F8D9093A9038093A8038DE35C
S11316B090E02DE330E0F90120812E7FFC012083AE
S11316C089E690E029E630E0F90120812C7FFC01D5
S11316D0208389E690E029E630E0F901308128A1F1
S11316E0232BFC0120838CE390E02CE330E0F90110
S11316F020812160FC0120838DE390E02DE330E024
S1131700F90120812160FC0120838B818330D9F58C
S11317108E8D9F8D9093AB038093AA038DE390E00D
S11317202DE330E0F90120812D7FFC01208389E63F
S113173090E029E630E0F9012081237FFC01208339
S113174089E690E029E630E0F9012081422F28A1C2
S1131750222F30E0220F331F220F331F242BFC01D2
S113176020838CE390E02CE330E0F90120812260B7
S1131770FC0120838DE390E02DE330E0F90120812A
S11317802260FC0120838FE590E02C81FC01208302
S11317900000A0960FB6F894DEBF0FBECDBFDF9158
S11317A0CF9108951F920F9200905F000F92112421
S11317B02F933F934F935F936F937F938F939F9355
S11317C0AF93BF93EF93FF93CF93DF93CDB7DEB780
S11317D08091A8039091A903FC0109950000DF9171
S11317E0CF91FF91EF91BF91AF919F918F917F9195
S11317F06F915F914F913F912F910F9000925F00F5
S11318000F901F9018951F920F9200905F000F92F7
S113181011242F933F934F935F936F937F938F93F1
S11318209F93AF93BF93EF93FF93CF93DF93CDB782
S1131830DEB78091AA039091AB03FC0109950000E7
S1131840DF91CF91FF91EF91BF91AF919F918F91D4
S11318507F916F915F914F913F912F910F900092E3
S11318605F000F901F9018951F920F9200905F00D9
S11318700F9211242F933F934F935F936F937F9312
S11318808F939F93AF93BF93EF93FF93CF93DF9384
S113189000D000D0CDB7DEB783E290E0FC018081B8
S11318A089839091D603898189278A839091D4036F
S11318B0898189238B83898180959091D50389239C
S11318C08C839C818B81892B8C839C818A81892345
S11318D08C838BE690E0FC0180819C8189238C833E
S11318E089818093D6038C81882309F44FC08C812D
S11318F0882F90E081709927892B31F08091AC0377
S11319009091AD03FC0109958C81882F90E0827041
S11319109927892B31F08091AE039091AF03FC019C
S113192009958C81882F90E084709927892B31F058
S11319308091B0039091B103FC0109958C81882FAB
S113194090E088709927892B31F08091B2039091AF
S1131950B303FC0109958C81882F90E0807199274D
S1131960892B31F08091B4039091B503FC01099562
S11319708C81882F90E080729927892B49F080917F
S1131980B6039091B703FC01099501C00000000063
S113199000000F900F900F900F90DF91CF91FF9167
S11319A0EF91BF91AF919F918F917F916F915F91D3
S11319B04F913F912F910F9000925F000F901F90D5
S11319C018951F920F9200905F000F9211242F938D
S11319D03F934F935F936F937F938F939F93AF93B3
S11319E0BF93EF93FF93CF93DF9300D000D0CDB795
S11319F0DEB786E290E0FC01808189839091D9036F
S1131A00898189278A839091D703898189238B834C
S1131A10898180959091D80389238C839C818B81C3
S1131A20892B8C839C818A8189238C838CE690E02A
S1131A30FC0180819C8189238C8389818093D903D3
S1131A408C81882309F44FC08C81882F90E08170A9
S1131A509927892B31F08091B8039091B903FC0147
S1131A6009958C81882F90E082709927892B31F019
S1131A708091BA039091BB03FC0109958C81882F56
S1131A8090E084709927892B31F08091BC03909168
S1131A90BD03FC0109958C81882F90E088709927FB
S1131AA0892B31F08091BE039091BF03FC0109950D
S1131AB08C81882F90E080719927892B31F0809157
S1131AC0C0039091C103FC0109958C81882F90E09B
S1131AD080729927892B49F08091C2039091C303A6
S1131AE0FC01099501C00000000000000F900F9058
S1131AF00F900F90DF91CF91FF91EF91BF91AF9134
S1131B009F918F917F916F915F914F913F912F9111
S1131B100F9000925F000F901F9018951F920F92E4
S1131B2000905F000F9211242F933F934F935F9384
S1131B306F937F938F939F93AF93BF93EF93FF9391
S1131B40CF93DF9300D000D0CDB7DEB789E290E029
S1131B50FC01808189839091DC03898189278A83B0
S1131B609091DA03898189238B838981809590916F
S1131B70DB0389238C839C818B81892B8C839C81BF
S1131B808A8189238C838DE690E0FC0180819C818D
S1131B9089238C8389818093DC038C81882309F4D5
S1131BA065C08C81882F90E081709927892B31F052
S1131BB08091C4039091C503FC0109958C81882F01
S1131BC090E082709927892B31F08091C60390911F
S1131BD0C703FC0109958C81882F90E084709927B4
S1131BE0892B31F08091C8039091C903FC010995B8
S1131BF08C81882F90E088709927892B31F080910F
S1131C00CA039091CB03FC0109958C81882F90E045
S1131C1080719927892B31F08091CC039091CD0369
S1131C20FC0109958C81882F90E080729927892B7B
S1131C3031F08091CE039091CF03FC0109958C8102
S1131C40882F90E080749927892B31F08091D003FC
S1131C509091D103FC0109958C8188234CF48091E7
S1131C60D2039091D303FC01099501C00000000048
S1131C7000000F900F900F900F90DF91CF91FF9184
S1131C80EF91BF91AF919F918F917F916F915F91F0
S1131C904F913F912F910F9000925F000F901F90F2
S1131CA018951F920F9200905F000F9211242F93AA
S1131CB03F934F935F936F937F938F939F93AF93D0
S1131CC0BF93EF93FF93CF93DF93CDB7DEB7269700
S1131CD0DEBFCDBF24E830E08091D4019091D501DE
S1131CE0A091D601B091D70180959095F901918387
S1131CF080839091E80181E0913009F480E08823A9
S1131D0009F4A8C020910604309107044091080406
S1131D10509109048091020490910304A091040459
S1131D20B091050461E0281739074A075B0709F4F5
S1131D3060E0662311F00E94321520910604309170
S1131D400704409108045091090480910204909181
S1131D500304A0910404B091050461E08217930781
S1131D60A407B5070CF060E0662351F18091D2011D
S1131D709091D30184589F4F9A83898389819A8152
S1131D80FC0184918B834B818BE290E02BE230E069
S1131D90F9012081242BFC0120838091020490917D
S1131DA00304A0910404B09105040196A11DB11D82
S1131DB08093020490930304A0930404B093050455
S1131DC020910604309107044091080450910904BD
S1131DD08091020490910304A0910404B09105043D
S1131DE061E0281739074A075B070CF060E06623B7
S1131DF089F18091D2019091D30184589F4F9D83A2
S1131E008C838C819D81FC0184918E838E81882FAB
S1131E1090E0AC01409550958BE290E02BE230E0ED
S1131E20F9012081322F242F2323FC012083809168
S1131E30020490910304A0910404B0910504019755
S1131E40A109B1098093020490930304A0930404AC
S1131E50B0930504000026960FB6F894DEBF0FBEBB
S1131E60CDBFDF91CF91FF91EF91BF91AF919F9142
S1131E708F917F916F915F914F913F912F910F902F
S1131E8000925F000F901F9018951F920F92009080
S1131E905F000F9211242F933F934F935F936F939F
S1131EA07F938F939F93AF93BF93EF93FF93CF93BE
S1131EB0DF93CDB7DEB72697DEBFCDBF9091E801A3
S1131EC081E0913009F480E0882309F4A8C02091CE
S1131ED0060430910704409108045091090480914C
S1131EE0020490910304A0910404B091050461E0FC
S1131EF0281739074A075B0709F460E0662311F0E5
S1131F000E94321520910604309107044091080480
S1131F10509109048091020490910304A091040457
S1131F20B091050461E082179307A407B5070CF08C
S1131F3060E0662351F18091D2019091D3018458DD
S1131F409F4F9A83898389819A81FC0184918B8331
S1131F504B818BE290E02BE230E0F9012081242BCD
S1131F60FC0120838091020490910304A091040455
S1131F70B09105040196A11DB11D809302049093B4
S1131F800304A0930404B093050420910604309143
S1131F90070440910804509109048091020490912F
S1131FA00304A0910404B091050461E028173907E3
S1131FB04A075B070CF060E0662389F18091D20147
S1131FC09091D30184589F4F9D838C838C819D81F4
S1131FD0FC0184918E838E81882F90E0AC01409522
S1131FE050958BE290E02BE230E0F9012081322F12
S1131FF0242F2323FC012083809102049091030465
S1132000A0910404B09105040197A109B10980933A
S1132010020490930304A0930404B0930504000005
S113202026960FB6F894DEBF0FBECDBFDF91CF91D9
S1132030FF91EF91BF91AF919F918F917F916F919C
S11320405F914F913F912F910F9000925F000F90FD
S11320501F901895CF93DF93CDB7DEB70E94751DFF
S1132060DC01CB018093FE039093FF03A093000453
S1132070B09301042091FE033091FF0340910004CA
S1132080509101048091FA039091FB03A091FC0309
S1132090B091FD03281739074A075B0709F46CC0A0
S11320A08091FE039091FF03A0910004B09101047C
S11320B08093FA039093FB03A093FC03B093FD0376
S11320C08091E2039091E303A091E403B091E503CE
S11320D021E0892B8A2B8B2B09F020E0222361F04D
S11320E00E94751DDC01CB018093E6039093E70306
S11320F0A093E803B093E9038091E2039091E30392
S1132100A091E403B091E5030196A11DB11D809354
S1132110E2039093E303A093E403B093E503909167
S1132120130481E08927882371F08091E203909160
S1132130E303A091E403B091E5030A97A105B10577
S113214014F081E001C080E0882319F081E08093DD
S113215013048091F2039091F303A091F403B091DE
S1132160F5030196A11DB11D8093F2039093F3032F
S1132170A093F403B093F5030000DF91CF91089589
S1132180CF93DF9300D0CDB7DEB761E083E00E9448
S1132190BC1D8091D2019091D30161E00E94BC1DCD
S11321A08091D0019091D10160E00E94BC1D60E05B
S11321B086E00E94BC1D41E06AE270E186E00E9474
S11321C0FE09CE0101960E948E00CE0102960E9465
S11321D076180E949B000E94831840E052EC61E054
S11321E070E088E194E00E94DB0942E350E060E0A3
S11321F070E088E194E00E94F11C1092E801CE01A5
S113220002960E94A218CE0101960E94BE00000010
S11322100F900F90DF91CF910895CF92DF92EF92BC
S1132220FF920F931F93CF93DF93CDB7DEB72C9715
S11322300FB6F894DEBF0FBECDBF86E194E00E94D6
S1132240820789E290E0FC018081882F90E080720F
S1132250992721E0892B09F420E02093E103909150
S1132260E80181E0923009F080E0882329F180912F
S11322700A0490910B04A0910C04B0910D042091D8
S1132280DD033091DE034091DF035091E00361E010
S113229082179307A407B50709F460E0662361F089
S11322A080910A0490910B04A0910C04B0910D0448
S11322B0BC01CD010E94A8179091E80181E0933000
S11322C009F080E0882309F475C09091E90181E068
S11322D0913009F080E0882341F1C0900A04D09045
S11322E00B04E0900C04F0900D042091E001309177
S11322F0E1014091E2015091E3018091DC01909170
S1132300DD01A091DE01B091DF01820F931FA41FB4
S1132310B51FBC01CD010E944D17DC01CB01A70103
S11323209601BC01CD010E9452159091E90181E012
S1132330992309F080E08823E1F0C0900A04D0904A
S11323400B04E0900C04F0900D048091DC0190915A
S1132350DD01A091DE01B091DF01BC01CD010E943D
S11323604D17DC01CB01A7019601BC01CD010E94F0
S113237052152091020430910304409104045091B9
S113238005048091060490910704A0910804B0917B
S1132390090461E0281739074A075B0709F060E080
S11323A0662341F09091E90181E0913009F480E0E5
S11323B08093E9019091E80181E0943009F080E094
S11323C0882309F4B1C290911404809112049817DF
S11323D031F49091150480911004981711F081E064
S11323E001C080E0882309F4C5C09091120481E003
S11323F08927882309F4BAC080911004882F90E0BB
S11324008130910509F18230910509F48AC0892B44
S113241009F0ACC081E08093E9018091DC019091E6
S1132420DD01A091DE01B091DF01BC01CD010E946C
S11324304D17DC01CB0128E532E040E050E0BC015F
S1132440CD010E94521592C01092E9012091E00141
S11324503091E1014091E2015091E3018091DC016E
S11324609091DD01A091DE01B091DF0179018A0133
S1132470E81AF90A0A0B1B0BD801C7010297A10538
S1132480B105E8F02091E0013091E1014091E201D1
S11324905091E3018091DC019091DD01A091DE0176
S11324A0B091DF0179018A01E81AF90A0A0B1B0BC2
S11324B0D801C701B695A7959795879523C0209114
S11324C0E0013091E1014091E2015091E3018091FA
S11324D0DC019091DD01A091DE01B091DF01790171
S11324E08A01E81AF90A0A0B1B0BD801C701B69531
S11324F0A79597958795B095A095909581959F4FB1
S1132500AF4FBF4FBC01CD010E944D17DC01CB0181
S113251028E532E040E050E0BC01CD010E945215B4
S113252025C01092E9012091DC013091DD01409138
S1132530DE015091DF018091E0019091E101A091D1
S1132540E201B091E301820F931FA41FB51FBC01E8
S1132550CD010E944D17DC01CB0128E532E040E0BB
S113256050E0BC01CD010E9452150000809112047C
S1132570809314040E94751D7B018C018091DA0103
S11325809091DB019C01990F440B550B8091EA0358
S11325909091EB03A091EC03B091ED03820F931F94
S11325A0A41FB51F8E159F05A007B10730F48091B5
S11325B01204882311F081E001C080E0882309F42B
S11325C0B3C19091110481E08927882309F440C1A3
S11325D08091DC019091DD01A091DE01B091DF01D9
S11325E0BC01CD010E944D17DC01CB019C01AD0162
S11325F08091020490910304A0910404B091050415
S113260061E082179307A407B5070CF060E0662326
S113261051F18091DC019091DD01A091DE01B09136
S1132620DF01BC01CD010E944D17DC01CB0128E57F
S113263032E040E050E0BC01CD010E94521581E03F
S11326408093E9011092F6031092F7031092F803B5
S11326501092F9031092F2031092F3031092F40310
S11326601092F50355C18091E4019091E501A09188
S1132670E601B091E701BC01CD010E944D17DC01D8
S1132680CB0124E630E040E050E0BC01CD010E94E3
S1132690081EDA01C90189839A83AB83BC83209124
S11326A0F2033091F3034091F4035091F5038091C8
S11326B0F6039091F703A091F803B091F90379011F
S11326C08A01E81AF90A0A0B1B0BD801C7018D838A
S11326D09E83AF83B8879091E90181E0913009F03E
S11326E080E0882389F180910E0490910F04CC013D
S11326F0A0E0B0E0BC01CD010E94E518DC01CB01F3
S113270020E030E040EE5FE3BC01CD010E9473198C
S1132710DC01CB01BC01CD010E94AF187B018C010F
S11327202D813E814F81588589819A81AB81BC81FD
S1132730BC01CD010E94F81DDC01CB01A801970169
S1132740BC01CD010E9482159091E90181E0992399
S113275009F080E08823C1F180910E0490910F0468
S1132760CC01A0E0B0E0BC01CD010E94E518DC0181
S1132770CB0120E030E040EE5FE3BC01CD010E94DC
S11327807319DC01CB01BC01CD010E94AF187B01A0
S11327908C012D813E814F81588589819A81AB813D
S11327A0BC81BC01CD010E94F81DDC01CB01B095B8
S11327B0A095909581959F4FAF4FBF4FA80197016A
S11327C0BC01CD010E9482158091DC019091DD0154
S11327D0A091DE01B091DF01BC01CD010E944D1733
S11327E06B017C018091E0019091E101A091E201F3
S11327F0B091E301BC01CD010E944D17DC01CB0176
S11328008C0D9D1DAE1DBF1D20910204309103044B
S1132810409104045091050461E0281739074A07E0
S11328205B0708F460E0662311F01092E9018091DF
S1132830F2039091F303A091F403B091F503809314
S1132840F6039093F703A093F803B093F90360C0E1
S11328502091E0013091E1014091E2015091E301C6
S11328608091DC019091DD01A091DE01B091DF0146
S1132870820F931FA41FB51FBC01CD010E944D17E9
S1132880DC01CB0128E532E040E050E0BC01CD01A1
S11328900E945215209102043091030440910404D3
S11328A0509105048091060490910704A0910804B6
S11328B0B091090461E0281739074A075B0709F456
S11328C060E0662319F12091E0013091E10140912B
S11328D0E2015091E3018091DC019091DD01A0912E
S11328E0DE01B091DF01820F931FA41FB51FBC014D
S11328F0CD010E944D17DC01CB0128E532E040E018
S113290050E0BC01CD010E945215C4CF10921104B5
S11329100E94751DDC01CB018093EA039093EB03C5
S1132920A093EC03B093ED039091E80181E0992327
S113293009F080E0882341F068E572E080E090E0EF
S11329400E94A8170E94BE15809113048823E9F4FD
S11329500E94751D7B018C018091D8019091D90151
S11329609C01990F440B550B8091EE039091EF035A
S1132970A091F003B091F103820F931FA41FB51F20
S11329808E159F05A007B10710F481E001C080E017
S1132990882309F457C00E94751D9B01AC018091E6
S11329A0EE039091EF03A091F003B091F10379014C
S11329B08A01E81AF90A0A0B1B0BD801C701898797
S11329C09A87AB87BC87F8942091E2033091E303A4
S11329D04091E4035091E50380E69AEEDC010E9405
S11329E0491EDC01CB0129853A854B855C85BC01F8
S11329F0CD010E94081EDA01C90124E630E040E05E
S1132A0050E0BC01CD010E94081EDA01C901909377
S1132A100F0480930E041092E2031092E3031092C9
S1132A20E4031092E5031092130478940E94751D38
S1132A30DC01CB018093EE039093EF03A093F003AA
S1132A40B093F10300002C960FB6F894DEBF0FBECE
S1132A50CDBFDF91CF911F910F91FF90EF90DF9049
S1132A60CF900895CF93DF93CDB7DEB789E290E09E
S1132A70FC018081882F90E088709927892B19F4B4
S1132A8089E090E002C088E090E02BE230E04BE285
S1132A9050E0FA0140818427F90180830000DF912E
S1132AA0CF910895CF93DF93CDB7DEB728970FB6B4
S1132AB0F894DEBF0FBECDBF69837A838B839C837A
S1132AC02D833E834F8358878D819E81AF81B88546
S1132AD0BC01CD010E94A81789819A81AB81BC8178
S1132AE08093060490930704A0930804B093090408
S1132AF0000028960FB6F894DEBF0FBECDBFDF915D
S1132B00CF910895CF93DF93CDB7DEB728970FB653
S1132B10F894DEBF0FBECDBF69837A838B839C8319
S1132B202D833E834F8358878D819E81AF81B885E5
S1132B30BC01CD010E94A81720910604309107041E
S1132B40409108045091090489819A81AB81BC8128
S1132B50820F931FA41FB51F80930604909307044C
S1132B60A0930804B0930904000028960FB6F894C3
S1132B70DEBF0FBECDBFDF91CF910895CF93DF931A
S1132B80CDB7DEB710920604109207041092080421
S1132B90109209049091E10381E08927882391F13F
S1132BA089E290E0FC018081882F90E0807299276F
S1132BB021E0892B09F420E02093E1032091020411
S1132BC0309103044091040450910504809106045B
S1132BD090910704A0910804B091090461E02817BA
S1132BE039074A075B0709F060E0662399F228E594
S1132BF032E040E050E06CE97FEF8FEF9FEF0E94FE
S1132C008215C8CF28E532E040E050E068E17CEF6F
S1132C108FEF9FEF0E9482152091020430910304EC
S1132C204091040450910504809106049091070496
S1132C30A0910804B091090461E0281739074A07F4
S1132C405B0709F460E0662309F0E6CF8091E103B5
S1132C50882391F189E290E0FC018081882F90E043
S1132C608072992721E0892B09F420E02093E10365
S1132C70209102043091030440910404509105040E
S1132C808091060490910704A0910804B09109046E
S1132C9061E0281739074A075B0709F060E06623FB
S1132CA0A9F228E532E040E050E064E670E080E01C
S1132CB090E00E948215CACF28E532E040E050E05F
S1132CC068E873E180E090E00E948215209102049C
S1132CD0309103044091040450910504809106044A
S1132CE090910704A0910804B091090461E02817A9
S1132CF039074A075B0709F460E0662309F0E6CF69
S1132D009091E10381E08927882391F189E290E0A1
S1132D10FC018081882F90E08072992721E0892B23
S1132D2009F420E02093E10320910204309103048C
S1132D304091040450910504809106049091070485
S1132D40A0910804B091090461E0281739074A07E3
S1132D505B0709F060E0662399F226E930E040E081
S1132D6050E06CE97FEF8FEF9FEF0E948215C8CF90
S1132D7026E930E040E050E068E17CEF8FEF9FEF20
S1132D800E948215209102043091030440910404AE
S1132D90509105048091060490910704A0910804C1
S1132DA0B091090461E0281739074A075B0709F461
S1132DB060E0662309F0E6CF8091E103882391F176
S1132DC089E290E0FC018081882F90E0807299274D
S1132DD021E0892B09F420E02093E10320910204EF
S1132DE03091030440910404509105048091060439
S1132DF090910704A0910804B091090461E0281798
S1132E0039074A075B0709F060E06623A9F226E95F
S1132E1030E040E050E064E670E080E090E00E9442
S1132E208215CACF26E930E040E050E068EE73E056
S1132E3080E090E00E948215209102043091030406
S1132E404091040450910504809106049091070474
S1132E50A0910804B091090461E0281739074A07D2
S1132E605B0709F460E0662309F0E6CF10920204E0
S1132E7010920304109204041092050410920604A4
S1132E8010920704109208041092090481E08093C0
S1132E90E8010000DF91CF910895CF93DF93CDB780
S1132EA0DEB728970FB6F894DEBF0FBECDBF6D8393
S1132EB07E838F8398872D813E814F81588588EE4C
S1132EC093E0DC010E94491EDC01CB0124E336E0DF
S1132ED040E050E0BC01CD010E94081EDA01C901A6
S1132EE089839A83AB83BC8329813A814B815C813A
S1132EF080E89CE0DC010E94491EDC01CB0128EE45
S1132F0033E040E050E0BC01CD010E94081EDA012C
S1132F10C90189839A83AB83BC8389819A81AB81FC
S1132F20BC81880F991FAA1FBB1F89839A83AB8317
S1132F30BC8389819A81AB81BC81BC01CD01289677
S1132F400FB6F894DEBF0FBECDBFDF91CF910895C9
S1132F50CF93DF93CDB7DEB728970FB6F894DEBFD3
S1132F600FBECDBF6D837E838F8398872D813E8175
S1132F704F81588580E89CE0DC010E94491EDC01F9
S1132F80CB012CE330E040E050E0BC01CD010E94D5
S1132F902A1EDA01C90189839A83AB83BC838981A0
S1132FA09A81AB81BC81880F991FAA1FBB1F89839B
S1132FB09A83AB83BC8380E094E2A4EFB0E02981E0
S1132FC03A814B815C81BC01CD010E94081EDA016B
S1132FD0C9010197A109B1098093D4019093D50146
S1132FE0A093D601B093D701000028960FB6F894A9
S1132FF0DEBF0FBECDBFDF91CF910895CF93DF9396
S113300000D000D0CDB7DEB79A8389837C836B83ED
S113301089819A810197C1F58B819C810196A1F5E3
S11330208091DA019091DB01092E000CAA0BBB0BF5
S11330308093EA039093EB03A093EC03B093ED0326
S11330408091D8019091D901092E000CAA0BBB0BD9
S11330508093EE039093EF03A093F003B093F103F6
S11330600E94751DDC01CB018093FE039093FF0346
S1133070A0930004B093010486E194E00E94F30756
S113308087E194E00E94CB0089819A81892B61F4C5
S11330908B819C81019641F487E194E00E94D800E1
S11330A086E194E00E94000800000F900F900F90BA
S11330B00F90DF91CF910895CF93DF93CDB7DEB713
S11330C06FEF7FEF81E090E00E94FE17DF91CF91D8
S11330D00895CF93DF93CDB7DEB76FEF7FEF80E036
S11330E090E00E94FE17DF91CF910895CF93DF9374
S11330F000D0CDB7DEB79A83898300000F900F907C
S1133100DF91CF910895CF93DF93CDB7DEB780E8F9
S113311090E0FC01108288E890E0FC0111821082AA
S113312081E890E021E0FC0120838FE690E02FE627
S113313030E0F90120812160FC0120830000DF914F
S1133140CF910895CF93DF9300D0CDB7DEB79A83A4
S1133150898300000F900F90DF91CF9108950E9412
S1133160B6186894B1110C946D1908950E945219FF
S113317088F09F5798F0B92F9927B751B0F0E1F034
S1133180660F771F881F991F1AF0BA95C9F714C0E4
S1133190B13091F00E946C19B1E008950C946C194F
S11331A0672F782F8827B85F39F0B93FCCF386951D
S11331B077956795B395D9F73EF49095809570957A
S11331C061957F4F8F4F9F4F0895E89409C097FBF7
S11331D03EF490958095709561957F4F8F4F9F4FEA
S11331E09923A9F0F92F96E9BB279395F69587952E
S11331F077956795B795F111F8CFFAF4BB0F11F4F1
S113320060FF1BC06F5F7F4F8F4F9F4F16C0882397
S113321011F096E911C0772321F09EE8872F762FCD
S113322005C0662371F096E8862F70E060E02AF00E
S11332309A95660F771F881FDAF7880F96958795FA
S113324097F9089597F99F6780E870E060E0089522
S11332509FEF80EC089500240A94161617061806AA
S11332600906089500240A94121613061406050686
S11332700895092E0394000C11F4882352F0BB0F17
S113328040F4BF2B11F460FF04C06F5F7F4F8F4F7A
S11332909F4F089557FD9058440F551F59F05F3FB5
S11332A071F04795880F97FB991F61F09F3F79F064
S11332B087950895121613061406551FF2CF4695E6
S11332C0F1DF08C0161617061806991FF1CF869568
S11332D07105610508940895E894BB27662777274C
S11332E0CB0197F908950E9486190C9439190E940C
S11332F02B1938F00E94321920F0952311F00C9408
S113330022190C94281911240C946D190E944A193D
S113331070F3959FC1F3950F50E0551F629FF00124
S1133320729FBB27F00DB11D639FAA27F00DB11D3D
S1133330AA1F649F6627B00DA11D661F829F2227C6
S1133340B00DA11D621F739FB00DA11D621F839F4D
S1133350A00D611D221F749F3327A00D611D231F23
S1133360849F600D211D822F762F6A2F11249F5771
S113337050409AF0F1F088234AF0EE0FFF1FBB1F74
S1133380661F771F881F91505040A9F79E3F510533
S113339080F00C9422190C946D195F3FE4F3983E6D
S11333A0D4F3869577956795B795F795E7959F5FDD
S11333B0C1F7FE2B880F911D9695879597F908956F
S11333C0FC01918D228D892F90E0805C9F4F821BA0
S11333D091098F7399270895FC01918D828D981717
S11333E031F0828DE80FF11D858D90E008958FEF07
S11333F09FEF0895FC01918D828D981761F0828D65
S1133400DF01A80FB11D5D968C91928D9F5F9F7314
S1133410928F90E008958FEF9FEF0895FC01538DF4
S1133420448D252F30E0842F90E0821B930B54179A
S113343010F0CF9608950197089589E79BE1892BB1
S113344049F080E090E0892B29F00E94791B8111DA
S11334500C9400000895FC01848DDF01A80FB11DB8
S1133460A35ABF4F2C91848D90E001968F739927B6
S1133470848FA689B7892C93A089B1898C91837094
S113348080648C93938D848D981306C00288F3898D
S1133490E02D80818F7D80830895EF92FF920F93BA
S11334A01F93CF93DF93EC0181E0888F9B8D8C8DEC
S11334B0981305C0E889F989808185FD26C0F62E18
S11334C00B8D10E00F5F1F4F0F731127E02E8C8DB3
S11334D0E8120CC00FB607FCFACFE889F98980819D
S11334E085FFF5CFCE010E942B1AF1CF8B8DFE0103
S11334F0E80FF11DE35AFF4FF0829FB7F8940B8F4A
S1133500EA89FB89808180620AC09FB7F894EE89BA
S1133510FF896083E889F98980818370806480836E
S11335209FBF81E090E0DF91CF911F910F91FF90B9
S1133530EF900895CF93DF93EC01888D8823C9F031
S1133540EA89FB89808185FD05C0A889B9898C91A8
S113355086FD0FC00FB607FCF5CF808185FFF2CF43
S1133560A889B9898C9185FFEDCFCE010E942B1AD1
S1133570E7CFDF91CF910895CF92DF92EF92FF9240
S11335801F93CF93DF93EC016A017B01122FE8892B
S1133590F98982E080834115514E61057105B1F0CE
S11335A060E079E08DE390E0A70196010E94081E97
S11335B0DA01C9010197A109B109B695A7959795B3
S11335C087959C01211580E13807A8F0E889F989DD
S11335D0108260E874E88EE190E0A70196010E94F1
S11335E0081EDA01C9010197A109B109B695A79589
S11335F0979587959C01EC85FD853083EE85FF8545
S11336002083188EEC89FD891083EA89FB898081E7
S113361080618083EA89FB89808188608083EA896C
S1133620FB89808180688083EA89FB8980818F7D22
S11336308083DF91CF911F91FF90EF90DF90CF9027
S113364008951F920F920FB60F9211242F938F9308
S11336509F93EF93FF93E0912804F09129048081D4
S1133660E0912E04F0912F0482FD12C0908180918C
S113367031048F5F8F7320913204821751F0E091EF
S11336803104F0E0E85EFB4F958F8093310401C074
S11336908081FF91EF919F918F912F910F900FBE99
S11336A00F901F9018951F920F920FB60F9211242E
S11336B02F933F934F935F936F937F938F939F9336
S11336C0AF93BF93EF93FF9388E194E00E942B1A8A
S11336D0FF91EF91BF91AF919F918F917F916F91E6
S11336E05F914F913F912F910F900FBE0F901F90BC
S11336F0189588E194E00E94E01921E0892B09F4EF
S113370020E0822F0895E8E1F4E01382128288EE2B
S113371093E0A0E0B0E084839583A683B78387E831
S113372093E09183808385EC90E09587848784EC93
S113373090E09787868780EC90E0918B808B81EC7A
S113374090E0938B828B82EC90E0958B848B86EC5B
S113375090E0978B868B118E128E138E148E0895A3
S113376008950E94811D0E94B01B0E94C010CDE1EB
S1133770DAE10E940D112097E1F30E941D1AF9CF9E
S1133780CF92DF92EF92FF920F931F93CF93DF9329
S11337906C017A018B01C0E0D0E0CE15DF0581F029
S11337A0D8016D918D01D601ED91FC910190F081CC
S11337B0E02DC6010995892B11F02196EECF7E01EB
S11337C0C701DF91CF911F910F91FF90EF90DF9090
S11337D0CF9008956115710579F0FB0101900020E7
S11337E0E9F73197AF01461B570BDC01ED91FC91D2
S11337F00280F381E02D099480E090E008950C9418
S1133800EA1BDC01ED91FC910190F081E02D09941B
S113381065E973E00C94EA1B0F931F93CF93DF9336
S1133820EC010E94EA1B8C01CE010E94081C800F4F
S1133830911FDF91CF911F910F9108958F929F92C5
S1133840AF92BF92EF92FF920F931F93CF93DF93A8
S1133850CDB7DEB7A1970FB6F894DEBF0FBECDBFCC
S11338607C01FA01CB0119A2223008F42AE08E016E
S11338700F5D1F4F822E912CA12CB12CBF01A501ED
S113388094010E94081EF901CA01015011096A300D
S113389010F4605D01C0695CD8016C93232B242B68
S11338A0252B61F7B801C7010E94EA1BA1960FB648
S11338B0F894DEBF0FBECDBFDF91CF911F910F9162
S11338C0FF90EF90BF90AF909F908F900895CF920C
S11338D0DF92EF92FF920F931F93CF93DF93211503
S11338E0310581F4DC01ED91FC910190F081E02D32
S11338F0642FDF91CF911F910F91FF90EF90DF9094
S1133900CF9009942A30310501F577FF1DC06A0173
S11339107B01EC016DE20E94011C8C0144275527B8
S1133920BA014C195D096E097F092AE0CE010E9493
S11339301E1C800F911FDF91CF911F910F91FF905B
S1133940EF90DF90CF9008952AE0DF91CF911F91FF
S11339500F91FF90EF90DF90CF900C941E1C0F936B
S11339601F93CF93DF93EC010E94671C8C01CE015F
S11339700E94081C800F911FDF91CF911F910F911E
S113398008950F931F93CF93DF93EC010E94751D4D
S1133990688779878A879B87E881F9810284F38520
S11339A0E02DCE01099597FF17C00E94751D08856B
S11339B019852A853B85DC01CB01801B910BA20B69
S11339C0B30B0C811D812E813F8180179107A207C3
S11339D0B30710F38FEF9FEFDF91CF911F910F91FA
S11339E00895FC0144835583668377830895AF92D9
S11339F0BF92CF92DF92EF92FF920F931F93CF93D8
S1133A00DF9321153105C1F089015C016A01C0E031
S1133A10D0E0E62EF12CC5010E94C11C97FD0FC019
S1133A208E159F0561F0F60181936F0121960C17A5
S1133A301D0789F7C80104C080E090E001C0CE01F1
S1133A40DF91CF911F910F91FF90EF90DF90CF9076
S1133A50BF90AF9008951F920F920FB60F9211244A
S1133A602F933F938F939F93AF93BF938091B6040B
S1133A709091B704A091B804B091B9043091B50401
S1133A8023E0230F2D3720F40196A11DB11D05C09D
S1133A9026E8230F0296A11DB11D2093B50480933F
S1133AA0B6049093B704A093B804B093B90480917A
S1133AB0BA049091BB04A091BC04B091BD040196DA
S1133AC0A11DB11D8093BA049093BB04A093BC04C0
S1133AD0B093BD04BF91AF919F918F913F912F916E
S1133AE00F900FBE0F901F9018952FB7F894609108
S1133AF0B6047091B7048091B8049091B9042FBFB3
S1133B000895789484B5826084BD84B5816084BD51
S1133B1085B5826085BD85B5816085BDEEE6F0E042
S1133B20808181608083E1E8F0E01082808182609E
S1133B308083808181608083E0E8F0E0808181601F
S1133B408083E1EBF0E0808184608083E0EBF0E04F
S1133B50808181608083EAE7F0E0808184608083F3
S1133B60808182608083808181608083808180689D
S1133B7080831092C1000895CF93DF9390E0FC01FD
S1133B80E458FF4F2491FC01E057FF4F84918823B0
S1133B9061F190E0880F991FFC01E854FF4FC59133
S1133BA0D491FC01E255FF4FA591B491611109C074
S1133BB09FB7F8948881209582238883EC912E23E3
S1133BC00BC0623061F49FB7F8948881322F30952E
S1133BD083238883EC912E2B2C939FBF06C08FB731
S1133BE0F894E8812E2B28838FBFDF91CF9108951D
S1133BF0DB018F939F930E94491EBF91AF91A29FB7
S1133C00800D911DA39F900DB29F900D11240895D6
S1133C10A1E21A2EAA1BBB1BFD010DC0AA1FBB1FCC
S1133C20EE1FFF1FA217B307E407F50720F0A21B3E
S1133C30B30BE40BF50B661F771F881F991F1A94AB
S1133C4069F760957095809590959B01AC01BD01D5
S1133C50CF010895052E97FB1EF400940E94411E87
S1133C6057FD07D00E94081E07FC03D04EF40C94A5
S1133C70411E50954095309521953F4F4F4F5F4FD2
S1133C80089590958095709561957F4F8F4F9F4FC4
S1133C9008950E945A1EA59F900DB49F900DA49F55
S1133CA0800D911D11240895EE0FFF1F0590F491CE
S1133CB0E02D0994A29FB001B39FC001A39F700D92
S1133CC0811D1124911DB29F700D811D1124911D20
S1133CD00895A0E0B0E0EFE6FEE10C9499225C01C7
S1133CE06B017A016115710519F0FB0191838083E1
S1133CF0E114F10429F0C7010297839708F0E5C0A5
S1133D00E5012196F5011081812F90E00E949D1F0D
S1133D10892B11F05E01F4CF1D3229F42196F501AF
S1133D20118101E007C01B3221F4E5012296F5015F
S1133D30118100E0E114F10409F1F0E1EF16F1045E
S1133D4029F43FC010E3E114F10421F128E0E21664
S1133D50F10401F154F4E2E0EE16F10421F5812CB2
S1133D60912CA12CB0E4BB2E3EC0FAE0EF16F10476
S1133D7039F020E1E216F104B1F430C0103319F146
S1133D80FAE0EF2EF12CACEC8A2E982CA82CACE0A7
S1133D90BA2E29C078E0E72EF12C812C912CA12C8D
S1133DA0E0E1BE2E20C060E070E080E090E8970182
S1133DB00F2C000C440B550B0E94081E49015A019C
S1133DC012C0103359F488818F7D883509F0BACF39
S1133DD019812296026080E1E82EF12C812C912C2D
S1133DE0A12C68E0B62E40E060E070E0CB01270132
S1133DF00F2C000C66087708FE0150ED352E310EAD
S1133E0029E0231570F42FEB210F2A3118F439EC33
S1133E10332E06C02FE9210F2A3118F529EA322E54
S1133E20310E232D30E02E153F05DCF447FD16C07E
S1133E3086169706A806B90670F0A30192010E949F
S1133E40F81D630D711D811D911D61307105810582
S1133E5020E8920710F04FEF01C041E02196108155
S1133E60CBCF202F2170C114D10471F0442329F049
S1133E702197F601D183C08307C001FF19C022979F
S1133E80F601D183C08314C047FF12C0222329F056
S1133E9060E070E080E090E804C06FEF7FEF8FEFA8
S1133EA09FE722E230E03093BF042093BE0409C0B0
S1133EB0222381F090958095709561957F4F8F4F67
S1133EC09F4F462F372F282F12C040E030E020E0CC
S1133ED090E00DC097FFF5CF82E290E09093BF048D
S1133EE08093BE046FEF7FEF8FEF9FE7EACF642FDD
S1133EF0732F822FCDB7DEB7E1E10C94B522FC011C
S1133F0088279927E89421912032E9F3293010F089
S1133F102E30C8F32B3241F02D3239F4689404C0AA
S1133F200E94DA1F820F911D219120532A30C0F381
S1133F301EF4909581959F4F089591110C94E5215D
S1133F40803219F089508550C8F708959111089569
S1133F5081548A5108F4805E855A089544EA53E0F6
S1133F600E94B31F0895FA01A191B081009719F43A
S1133F701097E1F0CD01DC01CD010D90002011F48A
S1133F80C00113C0FB012191222319F02015D9F798
S1133F90F3CFFB012191201519F41E92119606C04E
S1133FA02223C1F70D900020A1F7D001FA01A193BB
S1133FB0B08308957AE0979F902D879F802D910D6F
S1133FC011240895AEE0B0E0E8EEFFE10C94A622DF
S1133FD00D891E8986E08C831A8309838FEF9FE7FE
S1133FE09E838D83AE01475E5F4F6F89788DCE01CE
S1133FF001960E940420EF81F885E00FF11F1082E2
S11340002E96E4E00C94C222ABE0B0E0EAE0F0E2E9
S11340100C9498226C017B018A01FC0117821682A0
S1134020838181FFCCC1CE0101963C01F6019381CD
S1134030F70193FD859193FF81917F01882309F412
S1134040BAC1853239F493FD859193FF81917F0143
S1134050853229F4B60190E00E94FE21E7CF912C2D
S1134060212C312CFFE1F315D8F08B3279F038F4A0
S1134070803279F08332A1F4232D20611DC08D326A
S113408061F0803369F4232D216016C0832D826092
S1134090382EE32DE4603E2E2AC0F32DF8601DC0B7
S11340A037FC2DC020ED280F2A3040F08E32B9F4B1
S11340B036FC81C1232D2064322E19C036FE06C081
S11340C08AE0989E200D1124922E11C0EAE02E9EC3
S11340D0200D1124222EF32DF0623F2E08C08C36C1
S11340E021F4832D8068382E02C0883641F4F7010C
S11340F093FD859193FF81917F018111B3CF982F17
S11341009F7D9554933028F40C5F1F4F9FE3998350
S11341100DC0833631F0833771F0833509F059C00F
S113412021C0F801808189830E5F1F4F8824839406
S1134130912C530113C02801F2E04F0E511CF801D9
S1134140A080B18036FE03C0692D70E002C06FEF1D
S11341507FEFC5010E94F3214C018201F32DFF770B
S11341603F2E16C0280122E0420E511CF801A08007
S1134170B18036FE03C0692D70E002C06FEF7FEF9F
S1134180C5010E94E8214C01F32DF0683F2E820105
S113419033FC1BC0822D90E088169906B0F4B6015A
S11341A080E290E00E94FE212A94F4CFF50137FCCE
S11341B0859137FE81915F01B60190E00E94FE2156
S11341C021102A9421E0821A91088114910471F734
S11341D0E8C0843611F0893641F5F80137FE07C08E
S11341E060817181828193810C5F1F4F08C060815F
S11341F07181072E000C880B990B0E5F1F4FF32D56
S1134200FF763F2E97FF09C0909580957095619534
S11342107F4F8F4F9F4FF0683F2E2AE030E0A3017D
S11342200E943A22882E861845C0853731F4232D02
S11342302F7EB22E2AE030E025C0932D997FB92E2F
S11342408F36C1F018F4883579F0B5C0803719F08D
S1134250883721F0B0C0E92FE061BE2EB4FE0DC056
S1134260FB2DF460BF2E09C034FE0AC0292F26603E
S1134270B22E06C028E030E005C020E130E002C0E4
S113428020E132E0F801B7FE07C0608171818281CC
S113429093810C5F1F4F06C06081718180E090E0C4
S11342A00E5F1F4FA3010E943A22882E8618FB2D11
S11342B0FF773F2E36FE0DC0232D2E7FA22E8914AC
S11342C058F434FE0BC032FC09C0832D8E7EA82E18
S11342D005C0B82CA32C03C0B82C01C0B92CA4FE73
S11342E00FC0FE01E80DF11D8081803321F49A2D69
S11342F0997EA92E09C0A2FE06C0B394B39404C04B
S11343008A2D867809F0B394A3FC11C0A0FE06C0E0
S1134310B21488F4280C922C9B180EC0B21460F4CA
S1134320B60180E290E00E94FE21B394F7CFB2146C
S113433018F42B1802C0982C212CA4FE10C0B6012E
S113434080E390E00E94FE21A2FE17C0A1FC03C0FE
S113435088E790E002C088E590E0B6010CC08A2DA1
S1134360867859F0A1FE02C08BE201C080E2A7FC6E
S11343708DE2B60190E00E94FE21891438F4B60162
S113438080E390E00E94FE219A94F7CF8A94F3018F
S1134390E80DF11D8081B60190E00E94FE2181109C
S11343A0F5CF222009F442CEB60180E290E00E94CB
S11343B0FE212A94F6CFF6018681978102C08FEF01
S11343C09FEF2B96E2E10C94B42299278827089555
S11343D0FC010590615070400110D8F780959095CC
S11343E08E0F9F1F0895FC016150704001900110D1
S11343F0D8F7809590958E0F9F1F08950F931F9364
S1134400CF93DF93FB01238121FD03C08FEF9FEF47
S11344102CC022FF16C04681578124813581421762
S1134420530744F4A081B1819D012F5F3F4F318335
S113443020838C93268137812F5F3F4F37832683D8
S113444014C08B01EC01FB010084F185E02D09957A
S1134450892BE1F6D80116968D919C9117970196B8
S113446017969C938E931697CE01DF91CF911F914F
S11344700F910895FA01AA27283051F1203181F1D2
S1134480E8946F936E7F6E5F7F4F8F4F9F4FAF4F58
S1134490B1E03ED0B4E03CD0670F781F891F9A1F6B
S11344A0A11D680F791F8A1F911DA11D6A0F711D1F
S11344B0811D911DA11D20D009F468943F912AE02B
S11344C0269F11243019305D3193DEF6CF01089513
S11344D0462F4770405D4193B3E00FD0C9F7F6CF44
S11344E0462F4F70405D4A3318F0495D31FD40520C
S11344F0419302D0A9F7EACFB4E0A69597958795A2
S113450077956795BA95C9F7009761057105089580
S11345109B01AC010A2E069457954795379527952C
S1134520BA95C9F7620F731F841F951FA01D0895C4
S11345302F923F924F925F926F927F928F929F92AF
S1134540AF92BF92CF92DF92EF92FF920F931F939D
S1134550CF93DF93CDB7DEB7CA1BDB0B0FB6F8944E
S1134560DEBF0FBECDBF09942A88398848885F848E
S11345706E847D848C849B84AA84B984C884DF80FF
S1134580EE80FD800C811B81AA81B981CE0FD11DE3
S11345900FB6F894DEBF0FBECDBFED01089510E055
S11345A0C3E6D0E004C0FE010E94541E2196C43626
S10B45B0D107C9F7F894FFCF0D
S11345B8486F6D6500476574537465707300547271
S11345C861766572736552504D00537461747573E6
S11345D80053746F700052756E4D6F6465004D6FB3
S11345E876654162736F6C7574650053706F6F6C98
S11345F852504D00496E6E65724F6666736574005D
S113460853706F6F6C57696474680046696C616DA8
S1134618656E744469616D65746572004D6F766585
S1134628546F456E64005374617274506F73697487
S1134638696F6E0046696C616D656E744361707470
S1134648757265000001E500050104010E012B01E6
S11346581A01EF012101520226016C022E011103F5
S11346683B01D30344011E045001C4045B016A05E1
S11346786C011006760137068401DC06EA010000A5
S11346880500040088130000D0073200640000000D
S113469860EA0000D6060000010100486F6D696EEB
S11346A86720506C6561736520576169742E2E2EDE
S11346B800496E76616C69642072706D2C206E7589
S11346C86D626572206973206E6F7420612064695D
S11346D8676974004D6F74696F6E20436F6E7472EE
S11346E86F6C6C65723A200052756E6E696E672045
S11346F8696E2053656D69204175746F0052756E3B
S11347086E696E6720696E2046756C6C20417574FD
S11347186F0052756E6E696E6720696E204D616E0A
S113472875616C00486F6D696E672E2E2E00506C93
S1134738616E6E65722053746F707065642E2E2ED0
S113474800496E76616C69642072756E206D6F64C1
S1134758652C206E756D626572206973206E6F74A6
S1134768206120646967697400496E76616C6964C4
S113477820706F736974696F6E2C206E756D626535
S113478872206973206E6F7420612064696769748C
S113479800496E76616C6964206F66667365742C73
S11347A8206E756D626572206973206E6F74206166
S11347B820646967697400496E76616C696420775E
S11347C8696474682C206E756D6265722069732043
S11347D86E6F74206120646967697400256400251C
S11347E8643B25733B25730025643B25733B256C8B
S11347F875003B00496E76616C6964204861726497
S1134808776172652049442C206E756D626572204B
S11348186973206E6F742061206469676974004944
S11348286E76616C69642048617264776172652090
S1134838494400000000004D1AC01B0E1A9A1AE0E1
S113484819FA19EC190D0A006E616E00696E66009A
S10748586F7666000D
S9030000FC
